:1000000028C042C041C040C062C43EC03DC03CC0E8
:100010003BC01EC41BC696C337C036C0B4C434C070
:1000200033C032C031C055484620496E64696361AF
:1000300074696F6E20426F61726420535720766539
:100040007273696F6E2000004F435231410D0A00F8
:10005000000011241FBECFE5D4E0DEBFCDBF10E00D
:10006000A0E6B0E0ECEAFDE002C005900D92A236F9
:10007000B107D9F710E0A2E6B0E001C01D92A43F9D
:10008000B107E1F702D090C6BBCF0F931F93DF9368
:10009000CF93CDB7DEB72E970FB6F894DEBF0FBE65
:1000A000CDBF18861F821E821D821C8280E18B8339
:1000B0008B81882F90E02DB73EB7281B390B0FB6E8
:1000C000F8943EBF0FBE2DBF8DB79EB701969E8799
:1000D0008D878D859E8500969E878D872D853E8593
:1000E0003A8729877CD1E6E3F0E08081882F90E091
:1000F00084709070009711F481E08F832ED4E6E332
:10010000F0E08081882F90E084709070009719F45F
:100110008F8182608F8337D144D1E4E2F0E0808127
:1001200091819E838D8379D578949AD18CE0B6D1D4
:10013000E6E3F0E08081882F90E084709070009773
:1001400019F48F8184608F8332D3E6E3F0E08081FD
:10015000882F90E084709070009719F48F818860E8
:100160008F835ED18F81882311F0CBD401C09DD4C1
:1001700061D3188610C08885082F10E08885882FE5
:1001800090E08050904008D6F801EC58FF4F8083F3
:1001900088858F5F8887888588236CF785E690E05F
:1001A0009A838983188613C08885282F30E0898137
:1001B0009A81DC01A20FB31F8885882F90E0FC0193
:1001C000EC58FF4F80818C9388858F5F8887888566
:1001D0008C3050F386E290E078D180917000C9D1E4
:1001E0008F81882349F48091720084708823D9F329
:1001F0007CD48FE553D104C08EE750D18F81B9D123
:100200008AE04CD1DED0809172008270882339F070
:10021000809172008D7F8093720093D4C0D48091BE
:1002200073008170882309F46DC0809173008E7F04
:100230008093730080916200282F30E03C872B87E9
:100240008B859C858D31910509F45CC02B853C859F
:100250002E3131056CF48B859C858D30910509F428
:1002600051C02B853C852C31310509F44BC032C07F
:100270008B859C858037910531F12B853C852F3707
:10028000310509F43FC08B859C858436910511F5B5
:1002900086E290E01AD1809170006BD180916F005E
:1002A000813019F484E4FAD002C08EE4F7D0C8D1CA
:1002B00088E490E00AD1EBE4F0E080815AD1EAE4EE
:1002C000F0E0808156D182E4E9D0E6E3F0E080817D
:1002D00050D118C08C81282F30E08B81882F90E07E
:1002E00001978217930774F08C81282F30E040919A
:1002F000620089859A85FC01E20FF31F40838C819F
:100300008F5F8C83809172008170882329F18091A6
:1003100072008E7F8093720080917100882F90E030
:100320009E838D838D819E818330910528F482E0A8
:1003300090E09E838D830AC080916F00813031F000
:100340008D819E81969587959E838D83EAE4F0E06A
:100350008D819E8191838083A5E5B0E0E5E5F0E0A5
:1003600080818F788C93A5E5B0E0E5E5F0E08081B1
:1003700080688C938895A5E5B0E0E5E5F0E08081A4
:100380008F778C933FCFDF93CF93CDB7DEB7A6E2C5
:10039000B0E0E6E2F0E0808180648C93CF91DF9161
:1003A0000895DF93CF93CDB7DEB7E6E2F0E080812A
:1003B000882F90E0807490700097B9F7CF91DF910B
:1003C0000895DF93CF93CDB7DEB7A8E3B0E0E8E3BD
:1003D000F0E0808181608C93CF91DF910895DF936D
:1003E000CF93CDB7DEB7E7E3F0E083E08083E4E3CB
:1003F000F0E08EE38083E1E3F0E080ED8083A7E32B
:10040000B0E0E7E3F0E0808180618C93A2E3B0E0AC
:10041000E2E3F0E0808185608C93CF91DF910895D5
:10042000DF93CF93CDB7DEB71092630010927100C7
:10043000A2E3B0E0E2E3F0E0808180618C93A2E38C
:10044000B0E0E2E3F0E080818F778C93A2E3B0E04C
:10045000E2E3F0E080818F7B8C93CF91DF91089570
:10046000DF93CF9300D0CDB7DEB789E190E09A83D8
:100470008983E0E4F0E08A818083E9E2F0E0898129
:100480008083E0E4F0E086E88083EAE2F0E088E957
:1004900080830F900F90CF91DF910895DF93CF93DA
:1004A0000F92CDB7DEB78983ECE2F0E089818083DB
:1004B000EBE2F0E08081882F90E0807290700097EE
:1004C000B9F30F90CF91DF910895DF93CF9300D0D0
:1004D00000D000D0CDB7DEB79E838D8307C08C815E
:1004E000DDDF8D819E8101969E838D838D819E812E
:1004F0009B838A83EA81FB818491898389818C83B0
:100500008C81882361F726960FB6F894DEBF0FBE64
:10051000CDBFCF91DF910895DF93CF9300D000D06E
:100520000F92CDB7DEB79C838B836D831A821982BD
:100530001A8219820EC029813A818B819C81FC012B
:10054000E20FF31F8081AADF89819A8101969A8345
:1005500089838D81282F30E089819A8182179307C2
:1005600054F30F900F900F900F900F90CF91DF9159
:100570000895DF93CF930F92CDB7DEB7898389813A
:1005800088231CF481E38ADF02C080E387DF89814E
:10059000882F90E080749070009719F081E37EDFDF
:1005A00002C080E37BDF8981882F90E080729070A9
:1005B000009719F081E372DF02C080E36FDF898169
:1005C000882F90E080719070009719F081E366DFCA
:1005D00002C080E363DF8981882F90E0887090708B
:1005E000009719F081E35ADF02C080E357DF898169
:1005F000882F90E084709070009719F081E34EDFAF
:1006000002C080E34BDF8981882F90E08270907078
:10061000009719F081E342DF02C080E33FDF898168
:10062000882F90E081709070882319F081E336DF85
:1006300002C080E333DF04D00F90CF91DF910895A3
:10064000DF93CF93CDB7DEB7ECE2F0E08DE08083AF
:10065000EBE2F0E08081882F90E08072907000974C
:10066000B9F3ECE2F0E08AE08083EBE2F0E0808135
:10067000882F90E0807290700097B9F3CF91DF914E
:100680000895DF93CF93CDB7DEB728970FB6F894D0
:10069000DEBF0FBECDBF89E190E09E838D838D814B
:1006A0009E81019682959295907F9827807F9827CA
:1006B0009C01442737FD4095542F80E094E2A4EF3D
:1006C000B0E0BC01CD012BD3DA01C9019C838B833F
:1006D0002B813C8188EE93E0AC01249FC001259FD3
:1006E000900D349F900D1124AA2797FDA095BA2F45
:1006F00020E036E940E050E0BC01CD0132D3DA0120
:10070000C901885E93409A83898389819A818B305D
:10071000910534F489819A815FEF863F95072CF427
:100720008FEF9FEF98878F8302C018861F828F817B
:10073000988528960FB6F894DEBF0FBECDBFCF9137
:10074000DF9108951F920F920FB60F9211242F93ED
:100750003F934F935F936F937F938F939F93AF9349
:10076000BF93EF93FF93DF93CF93CDB7DEB7ECE268
:10077000F0E08081809362008091730081608093BB
:100780007300809162008ADECF91DF91FF91EF913B
:10079000BF91AF919F918F917F916F915F914F9199
:1007A0003F912F910F900FBE0F901F901895DF93E0
:1007B000CF93CDB7DEB705D016D031D0CF91DF9132
:1007C0000895DF93CF93CDB7DEB7E3E5F0E085E0A2
:1007D0008083A9E5B0E0E9E5F0E0808181608C9359
:1007E000CF91DF910895DF93CF93CDB7DEB7EFE4DC
:1007F000F0E082E88083EEE4F0E08AE08083EAE4DF
:10080000F0E081E190E091838083A9E5B0E0E9E543
:10081000F0E080818B7F8C93CF91DF910895DF93FF
:10082000CF93CDB7DEB7E5E4F0E087E08083CF91EA
:10083000DF910895DF93CF93CDB7DEB7A9E5B0E0A0
:10084000E9E5F0E0808180648C93CF91DF91089599
:100850001F920F920FB60F9211242F933F934F9335
:100860005F936F937F938F939F93AF93BF93EF9318
:10087000FF93DF93CF93CDB7DEB713D0CF91DF9146
:10088000FF91EF91BF91AF919F918F917F916F9168
:100890005F914F913F912F910F900FBE0F901F903E
:1008A0001895DF93CF93CDB7DEB703D0CF91DF910B
:1008B0000895DF93CF93CDB7DEB7A6E2B0E0E6E2CE
:1008C000F0E0808180648C93CF91DF9108951F9236
:1008D0000F920FB60F9211242F933F934F935F9374
:1008E0006F937F938F939F93AF93BF93EF93FF93F8
:1008F000DF93CF93CDB7DEB713D0CF91DF91FF91C8
:10090000EF91BF91AF919F918F917F916F915F9187
:100910004F913F912F910F900FBE0F901F90189500
:10092000DF93CF93CDB7DEB780916000882331F09D
:10093000809160008150809360000CC0A9E5B0E018
:10094000E9E5F0E080818F7B8C9380917200846078
:1009500080937200CF91DF910895DF93CF93CDB74D
:10096000DEB7E7E2F0E080E68083E6E2F0E087E8E9
:100970008083A6E2B0E0E6E2F0E0808188608C93BC
:10098000CF91DF9108951F920F920FB60F9211240D
:100990008F93EF93FF93DF93CF93CDB7DEB7E5E26D
:1009A000F0E080818093710080917200816080937B
:1009B0007200CF91DF91FF91EF918F910F900FBE59
:1009C0000F901F901895DF93CF93CDB7DEB7A5E3B7
:1009D000B0E0E5E3F0E0808182608C93A5E3B0E0D5
:1009E000E5E3F0E080818D7F8C93CF91DF910895D6
:1009F000DF93CF93CDB7DEB7A5E3B0E0E5E3F0E05A
:100A0000808188608C93A5E3B0E0E5E3F0E080812D
:100A1000877F8C93CF91DF910895DF93CF9300D0A0
:100A20000F92CDB7DEB78B831A8219821A82198290
:100A30000DC08B81AC98880F08F4AC9AAD9AAD9834
:100A40008B8389819A8101969A83898389819A818E
:100A50008830910574F30F900F900F90CF91DF9134
:100A60000895DF93CF9300D00F92CDB7DEB78B837D
:100A70001A8219821A8219820DC08B81AA98880F56
:100A800008F4AA9AAD9AAD988B8389819A810196D0
:100A90009A83898389819A818830910574F30F90B4
:100AA0000F900F90CF91DF910895DF93CF930F9226
:100AB000CDB7DEB71982198205C080E8AEDF898123
:100AC0008F5F898389818630C0F392DF198205C0E8
:100AD00080E8C7DF89818F5F898389818230C0F395
:100AE00072DF0F90CF91DF910895DF93CF93CDB751
:100AF000DEB780917200826080937200CF91DF91A7
:100B00000895DF93CF930F92CDB7DEB71982198284
:100B100005C08FEF82DF89818F5F8983898186306D
:100B2000C0F366DF198205C08FEF9BDF89818F5F7D
:100B3000898389818230C0F346DF0F90CF91DF91A6
:100B40000895DF93CF9300D00F92CDB7DEB71B820D
:100B50001A82198281E090E09B838A8315C08A8182
:100B60009B81FC01EB59FF4F8081882F90E0FC01B5
:100B7000EC58FF4F808189838981809572DF8A815B
:100B80009B8101979B838A838A819B8199233CF770
:100B90001ADF0F900F900F90CF91DF910895DF93A0
:100BA000CF9300D00F92CDB7DEB71B821A82198285
:100BB00085E090E09B838A8325C08A819B81FC012C
:100BC000E959FF4F8081882F90E0FC01EC58FF4FDE
:100BD000808189838A819B818230910559F48A8141
:100BE0009B81FC01E959FF4F80818A3318F4898188
:100BF000806889838981809510DF8A819B81019734
:100C00009B838A838A819B819923BCF6F1DE0F90B6
:100C10000F900F90CF91DF910895DF93CF93CDB7D1
:100C2000DEB7EDE2F0E080EC8083CF91DF910895B4
:100C3000DF93CF930F92CDB7DEB78983EFE2F0E079
:100C4000898180830F90CF91DF9108951F920F9239
:100C50000FB60F9211242F933F934F935F936F938F
:100C60007F938F939F93AF93BF93EF93FF93DF9304
:100C7000CF93CDB7DEB713D0CF91DF91FF91EF9136
:100C8000BF91AF919F918F917F916F915F914F91A4
:100C90003F912F910F900FBE0F901F901895DF93EB
:100CA000CF9300D0CDB7DEB785E690E09A838983F5
:100CB000EFE2F0E0808180936300ECE2F0E080916D
:100CC00063008083809163008A3119F4109264007C
:100CD00021C0809164008830C0F48091630080322C
:100CE00019F48AE38093630040916400242F30E07C
:100CF00089819A81FC01E20FF31F80916300808358
:100D0000842F8F5F8093640005C0809172008260A1
:100D1000809372000F900F90CF91DF910895A1E220
:100D20001A2EAA1BBB1BFD010DC0AA1FBB1FEE1F65
:100D3000FF1FA217B307E407F50720F0A21BB30BB0
:100D4000E40BF50B661F771F881F991F1A9469F72C
:100D500060957095809590959B01AC01BD01CF0188
:100D6000089597FB092E05260ED057FD04D0D7DF36
:100D70000AD0001C38F450954095309521953F4F8E
:100D80004F4F5F4F0895F6F7909580957095619558
:100D90007F4F8F4F9F4F0895E199FECF9FBB8EBB32
:0C0DA000E09A99278DB30895F894FFCFD6
:020DAC002F0016
:00000001FF
