:100000000C9487020C94A4020C94BF020C94A402DA
:100010000C94E50A0C94A4020C94CA0A0C94A40251
:100020000C94A4020C94AF0A0C94430A0C94020A98
:100030000C94A4020C94A4020C94A4020C94A402A8
:100040000C94A4020C94A4020C94A4020C94A40298
:100050000C94A4022E0C550C7C0CC00C090D550DF3
:10006000BC0DE20DF40D3A0E610E670E940EAA0E51
:10007000CF0EBF0E901059105E106C1078108010CB
:10008000571088108A108C10DC10E210E91046110D
:10009000461146114611F010F31016113611FB13DC
:1000A0009614961496149614961496149614961400
:1000B000961496149614961405142A1433144314A3
:1000C0004C1455145E140902220001010080280915
:1000D0000400000103010100092101010001223F88
:1000E000000705810308000A120110010000000842
:1000F000C016DB270001010203010C0331002E00B2
:1001000031002E00310014035500480046002D0038
:1001100052006100640069006F00100376006F00F8
:10012000740069002E006E006C0004030904660967
:1001300073686F77206C6F61646564204D574F441E
:100140000D0A00006D0972656164206368616E6E5E
:10015000656C0D0A4D096D6F6E69746F722063686E
:10016000616E6E656C0D0A00006209636865636B01
:100170002062617564206572726F720D0A00004220
:1001800053095265736574207465726D696E616C94
:100190000D0A000054414209546F67676C65205096
:1001A0006F72744320726561646F75740A00003E5B
:1001B00009696E63726561736520617564696F209A
:1001C000667265712E0D0A3C096465637265617320
:1001D0006520617564696F20667265712E0D0A0075
:1001E0000063094869646520637572736F720D0A54
:1001F000430953686F7720637572736F720D0A003D
:10020000006409446179206F66204D6F6E74680A3E
:100210000000530953504920726567697374657211
:100220000A00007009706C617920626565700D0AC2
:100230005009706C61792070756C73650D0A5709EF
:10024000706C617920776176650D0A00005409545D
:10025000696D6572205265676973746572730A000F
:10026000003009506F72744320726561646F757459
:1002700020666F7220616C6C204D756C7469706CB7
:100280006578206368616E6E656C730D0A312E2E81
:100290003909506F72744320726561646F75742000
:1002A000666F722073656C6563746564204D756C50
:1002B0007469706C6578206368616E6E656C0D0A98
:1002C0000000610973686F7720726561646F7574EF
:1002D00020666F72206164646974696F6E616C205E
:1002E0006B6579730A000048454C5020666F722098
:1002F0007465726D696E616C0D0A0A0000094465CF
:1003000062756720656E61626C65643A2000001B4F
:10031000630A414E2F4152432D3136342055484611
:100320002049496120416972626F726E6520526195
:1003300064696F2072656164792E2E2E0D0A1B5B35
:100340007300001B5B4A5761726E696E673A204208
:100350006175642072617465206F7574736964657A
:100360002072656C6961626C652072616E676521DF
:100370000A00001B5B4A001B5B306D00001B5B31F9
:100380006D00001B5B33326D00001B5B4800001BDF
:10039000631B5B73001B5B3F32356800001B5B3FD8
:1003A00032356C0000CB03C403BD03B603AF03209A
:1003B000202020202000464D54434847004552410C
:1003C000534520004D2D4C4F4144005645522F4F70
:1003D000500038383838383800333130343235004E
:1003E00032343330303000323230303030001B5B4A
:1003F00031313B3230661B5B324B546F6E6520727D
:100400006563656976656400001B5B31323B3230A1
:10041000661B5B324B65726173696E67204D2D57A9
:100420004F4400001B5B31353B3230661B5B324B67
:1004300077726974696E6720746F20656570726F7A
:100440006D2E2E2E00001B5B363B33306600001BEA
:100450005B353B333466000005010906A101050741
:1004600019E029E71500250175019508810295011C
:100470007508810395057501050819012905910283
:100480009501750391039506750815002565050707
:10049000190029658100C0000006280528072803E7
:1004A0001D071B03060606061605160607050703A5
:1004B0000707070309060905090710030A060A05C5
:1004C0000A070A030B060B050B070B030D060D05A8
:1004D0000D070D030E060E050E070E030F060F0582
:1004E0000F070F0333063305330733033406340590
:1004F00034073403280316071605040704061B05F2
:100500001B061D051D071D031B06370000001124D7
:100510001FBECFE5D4E0DEBFCDBF11E0A0E6B0E066
:10052000EAE8FDE202C005900D92A638B107D9F7BE
:1005300023E0A6E8B1E001C01D92AE39B207E1F7B1
:100540000E94BC080C94C3160C940000A82FB92F6D
:1005500080E090E041E050EA609530E009C02D91E4
:1005600082279795879510F084279527305EC8F3EA
:100570006F5FA8F30895EADF8D939D930895CF935D
:10058000CFB7CF93DF93C395849BE9F7849B0BC0D0
:10059000849B09C0849B07C0849B05C0849B03C0C7
:1005A000849B01C08BC06F93C0910B02DD27CE5E90
:1005B000DD4F2F9365E5849B03C02F916F91E6CFAC
:1005C0000F931F934F9320E040E15F9300B30871B6
:1005D00004FB27F93F9350E03BE039C018714064B9
:1005E0002F77012F5F5F1EC0406810B318712F77FF
:1005F00052501FC0406400B32F770871D1F15F5F84
:1006000000C023C0406210B32F77187191F15F5F73
:1006100000C025C008711027515012F45D5F000022
:10062000115027952C3F10B3C8F6187101270150BF
:1006300027952C3FC8F64227499300B3087110272D
:100640004F73115027952C3FA8F64695469510B349
:10065000187179F00127015027952C3F98F66B5AB5
:1006600060F3315000B3B0F600C010E81ABF0027A5
:1006700019C03B503195C31BD04010E81ABF088108
:10068000033C09F10B34F9F0209109021981110F93
:100690001213EDCF4A81441F093651F10D3211F08A
:1006A000013E29F7009310023F915F914F911F91F6
:1006B0000F912F916F91CAB7C7FD65CFDF91CF9191
:1006C000CFBFCF91189520911002222369F310918A
:1006D0000E02112391F5343092F130930E022093E3
:1006E0000A0210910B023BE0311B30930B0227C032
:1006F00000910E0201300CF50AE54F7049F430917B
:10070000610034FD1DC000936100C2EFD1E01CC048
:100710003091FD0134FD14C00093FD01CEEFD1E016
:1007200013C0052710E000C0000002BB1AC0052757
:1007300010E0221F1DC010E021C04AE502C032EDCA
:10074000432FC4E1D0E032E011B31861949A02B3B0
:1007500011BB58E120E865E320FF052702BB279580
:1007600017951C3FF0F66695B8F7B1F720FF0527FF
:1007700002BB279517951C3FD0F62795179517FFB5
:10078000052700001C3F02BBB0F629913A9519F7E6
:10079000077E10910F02110FC651D04002BB11F01D
:1007A0001093090210E81ABF006111B3177E402FA1
:1007B000477E54E05A95F1F702BB11BB42BB74CFA0
:1007C000CF93C62F2091FD0124FF0BC03091FE0175
:1007D00028E823272093FE01FC01AFEFB1E08C2F26
:1007E00004C02AE52093FD01F7CF91919D9381509C
:1007F000E1F76C2F8FEF91E00E94BB02CC5FC093BA
:10080000FD01CF910895CF93DF9380910E02835025
:1008100087FDB3C090910A029D3209F0ACC08830C8
:1008200009F0A9C080910B02CCE0D0E0C81BD1092F
:10083000CE5EDD4F83EC8093F2018AE58093610008
:10084000109286018881807621F0CE010E94851564
:1008500089C09A811092FB018981811106C0109292
:10086000FC012BEF31E082E079C0853019F49093E0
:100870000F0271C0863009F058C08B81813041F47D
:1008800088EE90E090930D0280930C0282E149C0C3
:10089000823041F486EC90E090930D0280930C023C
:1008A00082E23FC0833041F5911108C08AE291E0B5
:1008B00090930D0280930C0284E033C0913041F498
:1008C0008AE191E090930D0280930C0280E129C0AF
:1008D000923041F486E091E090930D0280930C02F7
:1008E00084E11FC09330E1F48AEF90E090930D0211
:1008F00080930C028CE015C0813241F488ED90E0C9
:1009000090930D0280930C0289E00BC0823241F477
:1009100088E594E090930D0280930C028FE301C070
:1009200080E090E4909386011DC0883069F08930A2
:1009300019F4909311020FC08A3049F08B3059F4AA
:100940008BE48093FE0107C021E132E002C02BEF6F
:1009500031E081E003C02BEF31E080E030930D0205
:1009600020930C029F81911104C09E81981708F476
:10097000892F8093600010920E028091610084FFA5
:1009800047C0809160008F3F09F442C0C82F893072
:1009900008F0C8E08C1B809360009091F20188E819
:1009A00089278093F201CC2331F140910C025091C0
:1009B0000D028091860186FF0AC0A3EFB1E0FA0123
:1009C0009C2F84918D9331969150D9F708C0DA010C
:1009D000E3EFF1E09C2F8D9181939150E1F72FEFA0
:1009E0002C0F30E02F5F3F4FCA01820F931F90936F
:1009F0000D0280930C026C2F83EF91E00E94BB02EA
:100A0000CC5FCC3019F08FEF80936000C093610011
:100A100084E190B3987131F48150D9F710920F02AC
:100A200010920902DF91CF91089585B78C6085BF40
:100A30008BB780688BBFEDEFF1E08BE481838AE5B3
:100A400080830895CF93DF93813609F4F5C1E0F5F3
:100A50008C3309F449C100F5803309F46AC048F4C5
:100A6000893009F404C28B3209F021C28AE18FB9BE
:100A700064C28A3308F01BC298B3907F98BB98B3C6
:100A80008053892B88BB62E08CE790E00E94880944
:100A900083B30E94C20976C08D3409F4F8C148F4CA
:100AA0008E3309F41BC1833409F001C285E993E058
:100AB00040C2833509F4AEC1843509F41EC18035C6
:100AC00009F0F5C182E004C18E3609F4ABC0D8F458
:100AD000843609F45BC038F4823609F4E4C1833605
:100AE00009F4CFC1E4C1863609F45CC08D3609F043
:100AF000DEC18091280283FB222720F991E0922712
:100B000090FB83F9CDC1843709F4E6C040F48F36F9
:100B100009F4CCC0803709F0CAC180E0D9C087375A
:100B200009F4D5C08F3709F4AFC1853709F0BFC1CB
:100B30008CC00E945F0A68E08BE690E00E94880902
:100B400067E084E790E00E948809DFEFC0E088B3A7
:100B5000807F88BB88B38C2B88BBDD2319F0000015
:100B6000D150FBCF8C2F0E94AB098EE30E947609F7
:100B700083B30E94C209CF5FC03149F787E793E092
:100B80000E947A09DF91CF910C945F0A64E08FE7AD
:100B900090E00E948809809162000E94760980910D
:100BA00063003CC068E085E890E00E94880966E048
:100BB00088EB92E00E9488090E94B90966E08EEBFA
:100BC00092E00E9488090E94B90966E084EC92E0F4
:100BD0000E9488090E94B90966E08AEC92E00E94AE
:100BE00088090E94B90966E080ED92E00E948809B8
:100BF0000E94B90966E086ED92E00E9488090E9491
:100C0000B90962E08CED92E00E94880963E08EE809
:100C100090E00E9488098091DC01805DDF91CF9196
:100C20000C9476096BE082E990E00E948809C8E59F
:100C3000D2E066E0CE010E9488090E94B90926969A
:100C400082E0C83BD807A9F778C16EE08EE990E052
:100C50000E94880983E793E00E947A0980914E02FE
:100C600086FF05C06BE08DEA90E00E9488098091C4
:100C70004E0283FF05C06CE089EB90E00E9488097A
:100C800080914E02877029F46CE086EC90E00E941F
:100C900088098091570283FD05C06AE083ED90E0EA
:100CA0000E948809DF91CF910C94B9098091570275
:100CB0008F788061809357020E941E1280915702A4
:100CC000886080935702DF91CF910C94321081E0BD
:100CD000DF91CF910C94361383E0FACF2FB7F894BD
:100CE0008AB59BB5409705C02FB7F8948AB59BB5D8
:100CF00040969BBD8ABD2FBF20C18FE893E00E9424
:100D00007A098DE793E00E947A0966E08DED90E024
:100D10000E94880987E793E00E947A0982B70E94BF
:100D2000C2098DE793E00E947A0966E084EE90E0C4
:100D30000E94880987E793E00E947A0983B70E949E
:100D4000C2098DE793E00E947A0967E08BEE90E09C
:100D50000E94880987E793E00E947A09CAB5DBB54B
:100D60008D2F0E94C2098C2F0E94C2098DE793E04B
:100D70000E947A0966E083EF90E00E94880987E785
:100D800093E00E947A09CCB5DDB58D2F0E94C2098F
:100D90008C2F0E94C2098DE793E00E947A0967E0D8
:100DA0008AEF90E00E94880987E793E00E947A0921
:100DB0008FB50E94C2098DE793E00E947A0967E02F
:100DC00082E091E00E94880987E793E00E947A0917
:100DD0008EB50E94C2098DE793E00E947A0967E010
:100DE0008AE091E00E94880987E793E00E947A09EF
:100DF00084B50E94C2098DE793E00E947A0966E0FB
:100E000082E191E00E94880987E793E00E947A09D5
:100E100085B50CC00E945F0A83E793E00E947A09BF
:100E200065E089E191E00E9488098DB10E94C209C4
:100E30000E945F0A88E0F2CE0E945F0A83E793E097
:100E40000E947A098AB30E94C2098BB30E94C20928
:100E50008FEF0E94B8070E94AB0963E080E291E047
:100E60000E94880989B3DF91CF910C94C2098091C7
:100E70002802982F909590FB80F98B7F877F809335
:100E800028028DE993E055C08FE893E052C080912D
:100E9000280282FB222720F991E0922790FB82F919
:100EA000809328024AC0DF91CF910C94FF09809172
:100EB00028028A7F877F809328020E945F0A83E747
:100EC00093E00E947A0987EE92E00E947A0981E617
:100ED00092E00E947A0982EC92E00E947A098FEAFD
:100EE00091E00E947A0983E292E00E947A098DE4FF
:100EF00092E00E947A0982E192E00E947A0981EEF2
:100F000091E00E947A0984E991E00E947A098FE7D2
:100F100091E00E947A0984E491E00E947A0989E6CE
:100F200091E00E947A0981E092E00E947A098EE2C3
:100F300091E0DF91CF910C947A09DF91CF910895E0
:100F4000F89420912902E22FF0E0E55DFD4F9081B9
:100F500089239827908387FF04C0253021F4906867
:100F60009083789408952C30D1F32B30C1F3F9CFCE
:100F70009091C20190958923F8949091C1018923A1
:100F800098279093C101789408958091BE0180952F
:100F90008E739091BD01891719F08093BD0108955A
:100FA00080E00895F894E0912902F0E0ED53FE4FBF
:100FB000908189239827908378940895F894E091FC
:100FC0002902F0E0E55CFD4F9081909589230C9417
:100FD000A0070E94D2070C94A007509129025F300D
:100FE00011F489B301C083B3252F30E0F901E55C2A
:100FF000FD4F4081682F6427D901A355BE4F9C91B6
:101000009623892F80958C93D901A356BE4F9C912E
:10101000962398279C9386238923942F982790833F
:10102000F901E55DFD4F89234081842B8083F9011F
:10103000E357FE4F492F417090FD02C082E3808349
:101040008081815039F484E18083F901ED53FE4FB2
:101050008081842B80835F5F503118F45093290284
:1010600002C01092290288B3807F88BB98B3809118
:101070002902892B88BB0895809129028530A9F522
:1010800089B3876E2091C201382F322790918C014D
:101090009323892F809580938C0190918B019323CA
:1010A000982790938B0183238923922F98279093DD
:1010B000C20189232091C101822B8093C101292F74
:1010C000217090FD03C082E380938A0180918A01A0
:1010D000815019F080938A01089584E180938A01F8
:1010E0008091C001822B8093C001089580912902D4
:1010F0008A30F9F483B3816C2091BE01382F3227F6
:10110000909189019323892F8095809389019091F3
:101110008801932398279093880183238923922F12
:1011200098279093BE0189239091BF01892B8093CA
:10113000BF01089580EC8ABB88E98BBB80EB87BB3D
:1011400087B38F6087BBC4988FEF85BB979892EA6F
:1011500091BB88E182BB81B3886181BBEFE5FAEE88
:101160003197F1F700C0000091BB80E182BB979AF4
:101170000895DF98DE9808959FE088E10FB6F8940F
:10118000A89581BD0FBE91BD0E949A080E946D096D
:10119000882331F085B5806785BD80E183BDFFCFB1
:1011A0000E94190A0E94700A0E94B9080E944615FE
:1011B00085B78F7485BF80912802887F877F809351
:1011C00028028FE093E00E947A090E94560A9498C0
:1011D000979878940E94C70BC0E0D1E0A8950E9430
:1011E000030480E00E94BF1580914B0280FF09C07C
:1011F00080914B028E7F80934B028091D5010E949B
:1012000022058091280280FF25C0C03120F00E9475
:101210005F0AC0E00CC0CF5F83B30E94C209C63032
:1012200031F489E00E94760989B30E94C2098C2FAB
:101230000E94AB0980E20E94760988B3807F88BB58
:1012400088B38C2B88BB8BB388718BBB8BB38BBB68
:1012500097980AC080912A0281FF06C00E947608F2
:101260000E94ED070E943C080E94F60E8FEF0E943C
:10127000DE070E941F0C80914E0285FF27C08091DF
:101280004D0286FD23C0809157028770823011F491
:101290000E94A01180914E028F7D80934E0280911A
:1012A000570283FF13C080914E0286FF07C08091D2
:1012B0004E028F7B80934E020E941E120E94731179
:1012C0008C010E945D11B8010E9436128091FD01CF
:1012D00084FF84CFD0939D0381CF10BC89E189B96D
:1012E00086E880BD88E98AB980E008955D9BFECFDD
:1012F0008CB90895CF93DF93EC01FE01849188238C
:1013000021F00E9476092196F8CFDF91CF910895C0
:10131000EF92FF920F931F93CF93DF937C018C0189
:10132000C62FD0E0C8018E199F098C179D0734F491
:10133000F80181918F010E947609F4CFDF91CF915E
:101340001F910F91FF90EF9008958F708A3008F0F1
:10135000895D805D0895CF93C82F82958F700E941C
:10136000A5090E9476098C2F0E94A509CF910C94A3
:1013700076098DE08CB95D9BFECF8AE08CB95D9BD0
:10138000FECF0895CF93C82F87FF02C081E301C02D
:1013900080E30E947609C6FF02C081E301C080E3BA
:1013A0000E947609C5FF02C081E301C080E30E946C
:1013B0007609C4FF02C081E301C080E30E94760980
:1013C000C3FF02C081E301C080E30E947609C2FF2F
:1013D00002C081E301C080E30E947609C1FF02C020
:1013E00081E301C080E30E947609C0FF02C081E36F
:1013F00001C080E30E947609CF910C94B90980E086
:1014000090E008951F920F920FB60F9211248F93C0
:101410008CB18093D50180914B02816080934B0207
:101420008091D5018CB98F910F900FBE0F901F90B6
:10143000189583E58DB908958FB9779BFECF0895F0
:10144000EF92FF920F931F93CF93DF937C018C0158
:10145000C62FD0E0C8018E199F098C179D0734F460
:10146000F80181918F010E941C0AF4CFDF91CF9186
:101470001F910F91FF90EF900895C4980000089578
:101480000000C49A08951F920F920FB60F92112474
:101490008F938FB180934C028F910F900FBE0F905E
:1014A0001F90189583E893E00C947A098BE10E94D1
:1014B00076098BE50E94760983E70C9476098BE127
:1014C0000E9476098BE50E94760985E70C947609DF
:1014D0008FB580648FBD08958FB58F7B8FBD0895C4
:1014E00082E083BF89B7816089BF89B78B7F89BF5D
:1014F00008959C0199B79B7E99BF1FBC1EBC9FB7E6
:10150000F8941DBC1CBC3BBD2ABD9FBF8DE08EBDA9
:1015100088B7846188BF89B7806189BF08959C01BD
:101520001EBC1DBC1CBC98B7946098BF81E08FBDE9
:1015300082E18EBD99B79B7E99BF9FB7F8943BBD62
:101540002ABD9FBF089584BD9093D70188B780645A
:1015500088BF87E085BD89B7806489BF08951F92E1
:101560000F920FB60F9211248F938091D601815064
:1015700019F08093D60108C082E08093D601809153
:101580002A02826080932A028F910F900FBE0F90E3
:101590001F9018951F920F920FB60F9211248F93E0
:1015A000EF93FF931EBCEDE4F2E080818F7B80839C
:1015B000EEE4F2E0808180628083FF91EF918F9171
:1015C0000F900FBE0F901F9018951F920F920FB69D
:1015D0000F9211242F933F934F935F936F937F93B9
:1015E0008F939F93AF93BF93EF93FF938091D70116
:1015F000882331F08091D70181508093D701B6C004
:1016000080914D02877019F415BC0E946C0A80917C
:101610004D028770833079F480E992E00E948F0A4E
:101620000E94680A89E09DE30E94A30A80914D020E
:10163000887F80934D0280914D028770813071F5D3
:1016400080914D028695869586958770823039F017
:10165000833011F08130F9F480E992E002C080E338
:1016600095E00E948F0A0E94680A89E09DE30E942B
:10167000A30A80914D02869586958695895F87702D
:10168000982F990F990F990F80914D02877C892B84
:1016900080934D0203C015BC0E946C0A80914D02DC
:1016A0008770843061F580914D0286958695869588
:1016B0008770813029F08230F9F40E946C0A06C0EC
:1016C00080E992E00E948F0A0E94680A89E09DE307
:1016D0000E94A30A80914D02869586958695895F22
:1016E0008770982F990F990F990F80914D02877CE1
:1016F000892B80934D0203C015BC0E946C0A809117
:101700004D028770823091F580914D0286958695C5
:1017100086958770823041F018F4813041F023C003
:10172000833029F08430F9F40E946C0A06C080E905
:1017300092E00E948F0A0E94680A84E89EE10E945B
:10174000A30A80914D02869586958695895F87705C
:10175000982F990F990F990F80914D02877C892BB3
:1017600080934D0203C015BC0E946C0AFF91EF915B
:10177000BF91AF919F918F917F916F915F914F91A9
:101780003F912F910F900FBE0F901F901895EF92E1
:10179000FF920F931F93CF9380912A028E7F8260D6
:1017A00080932A0280914E02806280934E02809143
:1017B0004D028F7B80934D0280914D028068809313
:1017C0004D0280914E02806480934E0280914E02C1
:1017D000887F856080934E0288E5E82E82E0F82EAF
:1017E00000E010E0C0E146E050E0B801C7010E940F
:1017F0009416C15086E0E80EF11C0A5F1F4FC1111C
:10180000F2CF0E94B5108EED90E00E94A416809356
:101810004F02853070F060E08EED90E00E94B616C9
:1018200084E294E0CF911F910F91FF90EF900C9480
:101830007A09CF911F910F91FF90EF900895CF9368
:10184000C82FE09129028E2F90E08031910508F099
:10185000A6C2FC01E65DFF4F0C946416C43089F00B
:1018600008F4C5C1C830B9F0C03109F098C285E3A9
:101870008093540280914E02806280934E0286E2F1
:10188000ABC085E38093520280914E0280628093C8
:101890004E0282E1A1C085E38093530280914E0203
:1018A000806280934E028CE197C0C43089F008F4C6
:1018B0009EC1C830B9F0C03109F071C284E3809391
:1018C000540280914E02806280934E0285E284C071
:1018D00084E38093520280914E02806280934E0294
:1018E00081E17AC084E38093530280914E0280624A
:1018F00080934E028BE170C0C83071F178F4C23031
:10190000F9F0C43009F04BC283E380935202809116
:101910004E02806280934E0280E15EC0C03131F1A0
:10192000C03209F03CC287E38093550285E380937F
:10193000560280914E02806280934E028EE24CC02D
:1019400081E48093510280914E02806280934E0226
:101950000E94CC148CE040C083E3809353028091BA
:101960004E02806280934E028AE136C083E3809308
:10197000540280914E02806280934E0284E22CC019
:10198000C83069F178F4C230F1F0C43009F007C210
:1019900082E38093520280914E02806280934E02D5
:1019A0008FE01AC0C03229F1C03481F1C03109F092
:1019B000F6C182E38093540280914E02806280934C
:1019C0004E0283E209C083E38093510280914E026C
:1019D000806280934E028BE00E94BF15E0C182E3DB
:1019E0008093530280914E02806280934E0289E17F
:1019F000F3CF85E38093550280E380935602809174
:101A00004E02806280934E028DE2E6CF0E948411E6
:101A1000C6C1C83081F150F4C230C9F0C43009F1F8
:101A2000C13009F0BCC10E94B213B9C1C03269F122
:101A3000C034C1F1C03109F0B2C181E380935402D6
:101A400080914E02806280934E0282E2C5CF82E393
:101A50008093510280914E02806280934E028AE010
:101A6000BBCF81E38093520280914E0280628093CB
:101A70004E028EE0B1CF81E38093530280914E02FB
:101A8000806280934E0288E1A7CF82E38093550263
:101A900085E38093560280914E02806280934E02CD
:101AA0008CE29ACF0E949011A8C0C83071F150F416
:101AB000C230E9F0C430F9F0C13009F051C00E94E1
:101AC000DB1350C0C03259F168F4C03109F048C08E
:101AD00080E38093540280914E02806280934E0294
:101AE00081E228C0C03449F1C03879F139C08DE2B3
:101AF0008093510224C080E38093520280914E0271
:101B0000806280934E028DE015C080E38093530283
:101B100080914E02806280934E0287E10BC080E389
:101B2000809355028093560280914E02806280938A
:101B30004E028BE20E94BF1515C00E94A011809139
:101B40004E02806280934E020DC080914D0286FD50
:101B500026C18091570283FF22C10E94D3111FC169
:101B6000C7FD1DC180914D0286FF19C180914D02B4
:101B70008F7B80934D0241C0C43081F0C0F1C830EA
:101B8000B9F0C03109F00BC189E380935402809110
:101B90004E02806280934E028AE21ECF89E38093D8
:101BA000520280914E02806280934E0286E114CFF1
:101BB00089E38093530280914E02806280934E02AB
:101BC00080E20ACFC430F9F090F0C83031F1C03172
:101BD00009F0E5C088E38093540280914E02806250
:101BE00080934E0289E2F8CEC43081F100F5C23014
:101BF00009F0D5C08DE28093510280914E0280623F
:101C000080934E02CCC088E38093520280914E02B2
:101C1000806280934E0285E1DFCE88E38093530299
:101C200080914E02806280934E028FE1D5CEC83003
:101C3000B9F0C03109F0B3C087E3809354028091BA
:101C40004E02806280934E0288E2C6CE87E3809384
:101C5000520280914E02806280934E0284E1BCCE9B
:101C600087E38093530280914E02806280934E02FC
:101C70008EE1B2CEC43089F008F4B9CFC830B9F0E3
:101C8000C03109F08CC086E38093540280914E02EB
:101C9000806280934E0287E29FCE86E38093520259
:101CA00080914E02806280934E0283E195CE86E35E
:101CB0008093530280914E02806280934E028DE1A8
:101CC0008BCEC13009F06BC00E94B61268C0C0381C
:101CD000A9F48091570283FD62C08077803131F092
:101CE00082E00E94BF1580E00E94BF150E941E1274
:101CF0008091570288608093570251C0CC2351F0E5
:101D000068E083E291E00E9488098C2F0E94AB0971
:101D1000C7FD45C08091570283FF41C0877F8093F4
:101D200057020E94AF123BC0C03841F480914D026F
:101D300087FF35C080914D028F7709C0C7FD2FC046
:101D400080914D0287FD2BC080914D028068809369
:101D50004D0225C0C03439F0C03841F0C13049F4DB
:101D60000E94CC111CC00E94B31119C00E94C21164
:101D700016C0CC23A1F068E08CE291E00BC08C2F60
:101D80008871883061F0803151F0CC2341F068E0F7
:101D900085E391E00E9488098C2F0E94AB0988E1BD
:101DA0000E94B807C82F883019F0803159F011C04F
:101DB0008091570283FF18C082E00E946212CF9187
:101DC0000C9476118091570283FF0EC0CF910C9432
:101DD000F412882349F065E08EE391E00E948809BF
:101DE0008C2FCF910C94AB09CF9108950E94C50719
:101DF000823029F481E00E94E81581E053C08630EA
:101E000029F481E00E94E81582E04CC0843029F476
:101E100082E00E94E81583E045C08C3029F483E01D
:101E20000E94E81584E03EC08E3029F484E00E94D0
:101E3000E81585E037C08A3029F485E00E94E8156E
:101E400086E030C0883029F486E00E94E81587E0FB
:101E500029C0883129F487E00E94E81588E022C073
:101E60008A3129F488E00E94E81589E01BC08E3190
:101E700029F489E00E94E8158AE014C08C3129F425
:101E80008AE00E94E8158BE00DC0843129F48BE0D4
:101E90000E94E8158CE006C0863139F48CE00E947F
:101EA000E8158DE080935002CCC0823129F48DE09A
:101EB0000E94E8158EE0F6CF8031E9F48EE00E94B2
:101EC000E8158FE08093500280914F028111B9C0D4
:101ED000809157028770813009F0B3C080914E0223
:101EE0008770813009F0ADC080914E02887F809369
:101EF0004E0284E0A4C08033F1F48FE00E94E81524
:101F000080E18093500280914F0281119AC08091AC
:101F100057028770813009F094C080914E0287701B
:101F2000823009F08EC080E00E94361380914E020C
:101F3000887F816064C08233F1F480E10E94E815FB
:101F400081E18093500280914F0281117AC080918B
:101F500057028770813009F074C080914E028770FB
:101F6000833009F06EC080E00E94361380914E02EB
:101F7000887F826044C08633F1F481E10E94E815D5
:101F800082E18093500280914F0281115AC080916A
:101F900057028770813009F054C080914E028770DB
:101FA000843009F04EC080E00E94361380914E02CA
:101FB000887F836024C0843329F582E10E94E8157C
:101FC00083E1809350020E94971480914F02811107
:101FD00013C0809157028770813071F480914E0256
:101FE0008770853049F480E00E94361380914E025C
:101FF000887F846080934E0280914E028F7E809312
:102000004E021FC08C3311F583E10E94E81584E174
:102010008093500280914E02806180934E028091A5
:102020004F0281110EC0809157028770813049F4B0
:1020300080914E02887F856080934E0280E00E94EE
:10204000361380914E02806280934E02809150023E
:10205000811180939C0380915702857011F4109236
:1020600050020895CF93DF9310922902C2E3D1E486
:10207000809129028A3008F075C088B3807F88BBC0
:1020800098B380912902892B88BB80E4000081509D
:10209000E9F793B39095E09129024E2F50E04A3032
:1020A0005105E0F5FA01E65CFF4F0C94641689E3F4
:1020B00040C091FF37C0D093510234C091FF03C09C
:1020C00083E38093510295FF2FC087E380935502ED
:1020D00085E38093560228C091FDC093510295FF7D
:1020E00025C085E38093550280E3809356021EC08D
:1020F00095FF1EC0C093550285E38093560218C019
:1021000080E395FF16C0809355028093560211C05C
:1021100088E30FC087E30DC086E30BC08DE209C0E2
:1021200085E307C084E305C083E303C082E301C005
:1021300081E392FD8093520293FD8093530294FDBC
:102140008093540262E084E491E00E9488098091C7
:102150004E02806280934E02809129028F5F8093AD
:10216000290286CFDF91CF910895CF93DF938DE041
:102170008093290280912902833008F48BC088B3B0
:10218000807F88BB98B380912902892B88BB80E827
:1021900000008150E9F7C3B3DC2FD095E09129020C
:1021A0008E2F90E0FC013397EB30F10508F06EC004
:1021B000EC5BFF4F0C946416D6FF68C08091570209
:1021C000887F62C0D6FF62C080915702887F81609D
:1021D0005BC0D6FF5BC080915702887F826054C08D
:1021E0000E94760853C00E94ED0780912902815019
:1021F0008093290220915702D7FF0EC090E0FC0186
:10220000E55DFD4F308130683083FC01E55CFD4FBA
:10221000C083822F886038C0822F877F80935702C7
:1022200080914E028F7B80934E0230C00E94ED075A
:1022300080912902815080932902D7FF11C090918B
:102240004D029F7790934D0290E0FC01E55DFD4FBC
:10225000208120682083FC01E55CFD4FC08316C00F
:1022600080914D02806880934D0210C0D0FF06C05F
:10227000809157028F78806180935702D6FF06C005
:10228000809157028F788063809357028091290252
:1022900081506ECF88B3807F88BB80915702877052
:1022A000823021F4DF91CF910C94A011DF91CF9176
:1022B00008958FB580648FBD08958091500281117B
:1022C00006C080E28093DA018093DB0109C06AE0F6
:1022D0000E945816905D9093DB01805D8093DA0137
:1022E0008AED91E0089581E592E00895E8EBF2E04F
:1022F00085E584A385A3B69693E0EC39F907C9F781
:1023000089E094E00C947A0985E00E94BF158091E1
:102310005702887F80935702109250020C9432101B
:1023200086E00E94BF1580915702887F816080936C
:1023300057020E94760880919C0380935002089572
:1023400087E00E94BF1580915702887F826080934A
:1023500057021092500246E050E060EE73E081E5D3
:1023600092E00C947716809157028077803319F4AD
:1023700082E00E94BF15809157028F78806280931F
:102380005702089583E00E94BF15809157028F780D
:102390008063809357020895809157028F788061FF
:1023A000809357020895CF93DF93CDB7DEB7279779
:1023B0000FB6F894DEBF0FBECDBF87E0E7E4F1E0D3
:1023C000DE01119601900D928A95E1F780914D0200
:1023D00086FD2BC080914D02806480934D028FE476
:1023E00094E00E947A0962E0CE0101960E94880979
:1023F00086E494E00E947A0966E0CE0101960E948C
:1024000088090E943D0A8AE10E941C0A62E0CE010E
:1024100001960E94200A66E0CE0101960E94200AE1
:1024200085EA0E941C0A0E94400A27960FB6F8947B
:10243000DEBF0FBECDBFDF91CF9108950E94321055
:10244000809157028077803159F00E94D31189E042
:102450009DE30E94790A80914D0286FDFCCF08958C
:1024600080914E02806280934E0208950F931F93D5
:10247000CF93DF938C01EB018FE494E00E947A0903
:1024800062E0C8010E94880986E494E00E947A090B
:1024900066E0CE010E9488090E943D0A8AE10E94FE
:1024A0001C0A62E0C8010E94200A66E0CE010E9478
:1024B000200A85EA0E941C0ADF91CF911F910F919B
:1024C0000C94400A1F93CF93DF93CDB7DEB72A97C2
:1024D0000FB6F894DEBF0FBECDBF182F80E28987FC
:1024E0008A8786E0E5E6F0E0DE01119601900D9224
:1024F0008A95E1F7143051F00E945D11FC01808152
:1025000089870E945D11FC0181818A87612F70E0BB
:10251000660F771F6B557C4F42E050E0CE01079667
:102520000E9477166F817885CE0101960E948016F1
:10253000BE016F5F7F4FCE0109960E9436121430A4
:1025400021F080E090E00E94790A2A960FB6F89474
:10255000DEBF0FBECDBFDF91CF911F91089581E007
:102560000E94BF151EBC84E00C94621244E050E04F
:1025700067EE73E081E592E00E946A16892B11F5FF
:10258000909157029770913071F58091500284318B
:1025900051F580915502803319F410924F020EC00C
:1025A000823319F490934F0209C0853311F482E00D
:1025B00003C0873319F483E080934F0280914F0268
:1025C0000C94621280914F0281110DC080915702CC
:1025D0008770813041F480E592E00E94401684E2E9
:1025E00094E00C947A0908958091570287708130A5
:1025F00079F580914F0281112BC090915102809109
:1026000050029134A9F4853018F124E130E0281B00
:10261000310986E0829FF001839FF00D1124E85A72
:10262000FD4FA1E5B2E001900D928A95E1F710C04F
:1026300090E0019726E0289FB001299F700D11249A
:10264000605A7F4F46E050E081E592E00E94941688
:1026500080915002843121F480914F020C946212D7
:1026600080914E02806280934E020895823009F478
:1026700049C0D0F4882341F1813009F06FC080E374
:1026800095E00E948F0A0E94591189E09DE30E9403
:10269000A30A80914D02887F816080934D028091D2
:1026A0004D02877C886157C08430B9F008F43FC080
:1026B000853009F053C080E992E00E948F0A0E94A1
:1026C000591185E294EF42C080E992E00E948F0A9E
:1026D0000E94591189E09DE339C080E992E00E948F
:1026E0008F0A0E94591189E09DE30E94A30A8091FC
:1026F0004D02887F846080934D0280914D02877CDB
:10270000806129C080E992E00E948F0A0E945911DD
:1027100084E89EE10E94A30A80914D02887F826036
:1027200080934D0280914D02877C806214C085E4C5
:1027300091E00E948F0A0E94591189E09DE30E9456
:10274000A30A80914D02887F836005C00E94A30A7E
:1027500080914D02887F80934D0208958FB58F7BC5
:102760008FBD089580914F02811124C046E050E052
:1027700069ED73E081E592E00E946A16892B51F4BD
:102780008FEF00008150E9F70E94361380914E02CE
:10279000886003C080914E02877F80934E028091B3
:1027A00057028077803131F46CE771E083E891E083
:1027B0000C943612089580915702877009F0B6C0C4
:1027C00080914F02813049F008F4A7C0823009F4AB
:1027D0007EC0833009F47DC00895E09150028E2FB1
:1027E00090E0FC013197E431F10508F09FC0E15B16
:1027F000FF4F0C9464168091520280936200809186
:1028000053028093630081E08FC0E091DC0186E297
:10281000E89FF0011124E452FD4F80915202909103
:1028200053029183808380E00E9436138091DC0103
:102830008F5F863018F48093DC0102C01092DC01B7
:1028400082E00E94361380914D02877C80618093E4
:102850004D020895A091DC0186E2A89FD0011124C9
:10286000AA52BD4F08C0A091DC0186E2A89FD0010A
:102870001124A053BD4F86E0E1E5F2E001900D92F6
:102880008A95E1F750C0A091DC0186E2A89FD001B3
:102890001124A653BD4FEFCFA091DC0186E2A89F83
:1028A000D0011124AC53BD4FE6CFA091DC0186E2EC
:1028B000A89FD0011124A254BD4FDDCFA091DC010F
:1028C00086E2A89FD0011124A854BD4FD4CF0C9408
:1028D000761180915002853048F124E130E0281BC8
:1028E000310986E0829FB001839F700D1124DB01C6
:1028F000A85ABD4FE1E5F2E001900D928A95E1F70B
:102900006050704046E050E081E592E00E94AC16D5
:1029100084E294E00E947A0906C080914E0283FF0F
:1029200002C083E001C080E00C9436130895CF9379
:10293000DF9380914F0281112CC0809157028770E4
:1029400041F580914E0284FF24C0CCEDD2E09091FD
:102950005202888198130AC090915302898198137A
:1029600005C080E0DF91CF910C9436136AE08EE4CD
:1029700091E00E94880961E0CE010E94880961E02F
:10298000CE0101960E948809A69683E0C03CD80734
:10299000F1F6DF91CF9108950F931F93CF93DF93BB
:1029A00000D000D000D0CDB7DEB780914F02882391
:1029B00021F083E3809351025EC080914E0283FD3B
:1029C00007C085E00E94361366E089E591E00AC001
:1029D00080915502833348F082E00E94361366E00E
:1029E00080E691E00E94880946C042E050E067E638
:1029F00071E081E592E00E948716892B39F082E030
:102A00000E94361365E08AE691E0ECCF0091530214
:102A10001091540246E050E062ED70E0CE01019664
:102A20000E94941644E050E060E771E0CE01019608
:102A30000E94871681111FC0802F880F8056982F03
:102A4000990F990F890F1053810F90915502903370
:102A500069F4853068F480914E02877061F085E0FA
:102A60000E94361366E085E791E0BCCF803118F014
:102A700082E00E94361326960FB6F894DEBF0FBE92
:102A8000CDBFDF91CF911F910F9108950E94150541
:102A900010929D0308951F93CF93DF93CDB7DEB7B8
:102AA0002A970FB6F894DEBF0FBECDBF172F8887C9
:102AB00099876A87CE0108960E94F11529833A8387
:102AC0004B835C836D837E838F831E3E29F4CE010E
:102AD00001960E9440160EC087E0FE013196A0E5E7
:102AE000B2E001900D928A95E1F780914E028062EA
:102AF00080934E0284E02A960FB6F894DEBF0FBE94
:102B0000CDBFDF91CF911F910895FC018FED91E032
:102B100090930D0280930C0280818076803269F55B
:102B20008181893081F028F4813029F18330A9F046
:102B300024C08B30C1F08D3001F5648175818281B4
:102B400093810C944B1591E026813781213031051A
:102B500009F090E0892F81950895838181110DC03E
:102B600010926400089584E690E090930D028093A3
:102B70000C0281E0089588E0089580E00895909126
:102B80004D0297FD24C090919D03992301F19091EE
:102B9000E7019817E1F097988093E7019091FD0184
:102BA00094FFFCCF90E0880F991FFC01E956FB4F82
:102BB000E491E093E901FC01E856FB4F8491809396
:102BC000EB0168E089EE91E00E94E003979A089596
:102BD00090915002981302C088E001C089E00C94E3
:102BE000BF15CF93DF93CDB7DEB727970FB6F89415
:102BF000DEBF0FBECDBFFC016081262F207330E009
:102C000084E0359527958A95E1F7213019F0322F28
:102C1000306301C031E4462F4F7040632181522F51
:102C20005877569556955695506366FB992790F9B7
:102C3000622F660F6E70692B60632281822F80760F
:102C4000803269F028F481110FC0A0E370E30CC05A
:102C5000803441F0803641F4A5E377E305C0A5E375
:102C600072E302C0A0E375E32F718A2F90E02796EC
:102C70000FB6F894DEBF0FBECDBFDF91CF910895A0
:102C80000097A1F0FC012191CF0130E021503109E2
:102C900046E0429FB001439F700D1124605A7F4F60
:102CA00046E050E00E94AC1680E0089581E008956F
:102CB000991B79E004C0991F961708F0961B881F8E
:102CC0007A95C9F780950895EE0FFF1F0590F4914E
:102CD000E02D0994FB01DC0104C08D910590801961
:102CE00021F441505040C8F7881B990B0895FB010F
:102CF000DC0102C005900D9241505040D8F7089574
:102D0000FB01DC0105900D920020E1F70895FB0125
:102D1000DC0104C08D910190801921F44150504094
:102D2000C8F7881B990B0895DC01CB01FC01E199E0
:102D3000FECF06C0FFBBEEBBE09A31960DB20D92FE
:102D400041505040B8F70895E199FECF9FBB8EBB2C
:102D5000E09A99278DB30895DC01CB0103C02D9132
:102D60000E94B71641505040D0F70895262FE199A0
:102D7000FECF9FBB8EBB2DBB0FB6F894E29AE19AB3
:0A2D80000FBE01960895F894FFCFEE
:102D8A00FF5A5555012020202020201B5B4A1B5B3F
:102D9A0033336D00504F5254430D0A003A20000D50
:102DAA00444F4D20000D0A4D574F440D0A000909A2
:102DBA0040000D0A464D542D4E45540D0A000D0A89
:102DCA0055484620436F6E74726F6C0A00666972CA
:102DDA0073742072756E0D0A00546F6E65207265E9
:102DEA006376640D0A0053574F442076616C696418
:102DFA000D0A00554846206F66660D0A0054434E78
:102E0A0054300A0054434352300A000A4F435231A5
:102E1A00410A0054434E54310A005443435231414B
:102E2A000A005443435231420A000A54434E543270
:102E3A000A0054434352320A000A535043520A00CA
:102E4A004920000A635F775F313109000A635F77BF
:102E5A005F3133090009635F775F313509000A631F
:102E6A005F7709002E0D00383838383838000D0AD7
:102E7A00436865636B656420005820746F6E650053
:102E8A0058203E2E32350041300058203E31350060
:102E9A003330303000582053574F440030303030F0
:062EAA00323800522D0039
:00000001FF
