:100000000C9487020C94A4020C94BF020C94A402DA
:100010000C94DE0A0C94A4020C94C30A0C94A4025F
:100020000C94A4020C94A80A0C943E0A0C94FF09A8
:100030000C94A4020C94A4020C94A4020C94A402A8
:100040000C94A4020C94A4020C94A4020C94A40298
:100050000C94A4021D0C440C6B0CAF0CF80C440D5A
:10006000AB0DD10DE30D290E500E560E830E990ED9
:10007000BD0EAE0E461048104D105A1065106C1093
:100080007C10741076107810C810CE10D510331173
:10009000331133113311DC10DF1003112311E91375
:1000A0008414841484148414841484148414841490
:1000B0008414841484148414F31318142114311434
:1000C0003A1443144C14090222000101008028094B
:1000D0000400000103010100092101010001223F88
:1000E000000705810308000A120110010000000842
:1000F000C016DB270001010203010C0331002E00B2
:1001000031002E00310014035500480046002D0038
:1001100052006100640069006F00100376006F00F8
:10012000740069002E006E006C0004030904660967
:1001300073686F77206C6F61646564204D574F441E
:100140000D0A00006D0972656164206368616E6E5E
:10015000656C0D0A4D096D6F6E69746F722063686E
:10016000616E6E656C0D0A00006209636865636B01
:100170002062617564206572726F720D0A00004220
:1001800053095265736574207465726D696E616C94
:100190000D0A000054414209546F67676C65205096
:1001A0006F72744320726561646F75740A00003E5B
:1001B00009696E63726561736520617564696F209A
:1001C000667265712E0D0A3C096465637265617320
:1001D0006520617564696F20667265712E0D0A0075
:1001E0000063094869646520637572736F720D0A54
:1001F000430953686F7720637572736F720D0A003D
:10020000006409446179206F66204D6F6E74680A3E
:100210000000530953504920726567697374657211
:100220000A00007009706C617920626565700D0AC2
:100230005009706C61792070756C73650D0A5709EF
:10024000706C617920776176650D0A00005409545D
:10025000696D6572205265676973746572730A000F
:10026000003009506F72744320726561646F757459
:1002700020666F7220616C6C204D756C7469706CB7
:100280006578206368616E6E656C730D0A312E2E81
:100290003909506F72744320726561646F75742000
:1002A000666F722073656C6563746564204D756C50
:1002B0007469706C6578206368616E6E656C0D0A98
:1002C0000000610973686F7720726561646F7574EF
:1002D00020666F72206164646974696F6E616C205E
:1002E0006B6579730A000048454C5020666F722098
:1002F0007465726D696E616C0D0A0A0000094465CF
:1003000062756720656E61626C65643A2000001B4F
:10031000630A414E2F4152432D3136342055484611
:100320002049496120416972626F726E6520526195
:1003300064696F2072656164792E2E2E0D0A1B5B35
:100340007300001B5B4A5761726E696E673A204208
:100350006175642072617465206F7574736964657A
:100360002072656C6961626C652072616E676521DF
:100370000A00001B5B4A001B5B306D00001B5B31F9
:100380006D00001B5B33326D00001B5B4800001BDF
:10039000631B5B73001B5B3F32356800001B5B3FD8
:1003A00032356C0000CB03C403BD03B603AF03209A
:1003B000202020202000464D54434847004552410C
:1003C000534520004D2D4C4F4144005645522F4F70
:1003D000500038383838383800333130343235004E
:1003E00032343330303000323230303030001B5B4A
:1003F00031313B3230661B5B324B546F6E6520727D
:100400006563656976656400001B5B31323B3230A1
:10041000661B5B324B65726173696E67204D2D57A9
:100420004F4400001B5B31353B3230661B5B324B67
:1004300077726974696E6720746F20656570726F7A
:100440006D2E2E2E00001B5B363B33306600001BEA
:100450005B353B333466000005010906A101050741
:1004600019E029E71500250175019508810295011C
:100470007508810395057501050819012905910283
:100480009501750391039506750815002565050707
:10049000190029658100C0000006280528072803E7
:1004A0001D071B03060606061605160607050703A5
:1004B0000707070309060905090709030A060A05CC
:1004C0000A070A030B060B050B070B030D060D05A8
:1004D0000D070D030E060E050E070E030F060F0582
:1004E0000F070F0333063305330733033406340590
:1004F00034073403280316071605040704061B05F2
:100500001B061D051D071D031B06370000001124D7
:100510001FBECFE5D4E0DEBFCDBF11E0A0E6B0E066
:10052000E8E7FDE202C005900D92A638B107D9F7C1
:1005300013E0A6E8B1E001C01D92AE39B107E1F7C2
:100540000E94BA080C94BA160C940000A82FB92F78
:1005500080E090E041E050EA609530E009C02D91E4
:1005600082279795879510F084279527305EC8F3EA
:100570006F5FA8F30895EADF8D939D930895CF935D
:10058000CFB7CF93DF93C395849BE9F7849B0BC0D0
:10059000849B09C0849B07C0849B05C0849B03C0C7
:1005A000849B01C08BC06F93C0910B02DD27CE5E90
:1005B000DD4F2F9365E5849B03C02F916F91E6CFAC
:1005C0000F931F934F9320E040E15F9300B30871B6
:1005D00004FB27F93F9350E03BE039C018714064B9
:1005E0002F77012F5F5F1EC0406810B318712F77FF
:1005F00052501FC0406400B32F770871D1F15F5F84
:1006000000C023C0406210B32F77187191F15F5F73
:1006100000C025C008711027515012F45D5F000022
:10062000115027952C3F10B3C8F6187101270150BF
:1006300027952C3FC8F64227499300B3087110272D
:100640004F73115027952C3FA8F64695469510B349
:10065000187179F00127015027952C3F98F66B5AB5
:1006600060F3315000B3B0F600C010E81ABF0027A5
:1006700019C03B503195C31BD04010E81ABF088108
:10068000033C09F10B34F9F0209109021981110F93
:100690001213EDCF4A81441F093651F10D3211F08A
:1006A000013E29F7009310023F915F914F911F91F6
:1006B0000F912F916F91CAB7C7FD65CFDF91CF9191
:1006C000CFBFCF91189520911002222369F310918A
:1006D0000E02112391F5343092F130930E022093E3
:1006E0000A0210910B023BE0311B30930B0227C032
:1006F00000910E0201300CF50AE54F7049F430917B
:10070000610034FD1DC000936100C2EFD1E01CC048
:100710003091FD0134FD14C00093FD01CEEFD1E016
:1007200013C0052710E000C0000002BB1AC0052757
:1007300010E0221F1DC010E021C04AE502C032EDCA
:10074000432FC4E1D0E032E011B31861949A02B3B0
:1007500011BB58E120E865E320FF052702BB279580
:1007600017951C3FF0F66695B8F7B1F720FF0527FF
:1007700002BB279517951C3FD0F62795179517FFB5
:10078000052700001C3F02BBB0F629913A9519F7E6
:10079000077E10910F02110FC651D04002BB11F01D
:1007A0001093090210E81ABF006111B3177E402FA1
:1007B000477E54E05A95F1F702BB11BB42BB74CFA0
:1007C000CF93C62F2091FD0124FF07C02091FE0189
:1007D00038E823272093FE0103C02AE52093FD017A
:1007E000DC01EFEFF1E08C2F8E0F9D9191938E1332
:1007F000FCCF6C2F8FEF91E00E94BB02CC5FC093C7
:10080000FD01CF910895CF93DF9380910E02835025
:1008100087FDB3C090910B0220910A022D3209F09E
:10082000AAC0883009F0A7C0CCE0D0E0C91BD1092C
:10083000CE5EDD4F83EC8093F2018AE58093610008
:10084000109286018881807621F0CE010E947E156B
:1008500089C09A811092FB018981811106C0109292
:10086000FC012BEF31E082E079C0853019F49093E0
:100870000F0271C0863009F058C08B81813041F47D
:1008800088EE90E090930D0280930C0282E149C0C3
:10089000823041F486EC90E090930D0280930C023C
:1008A00082E23FC0833041F5911108C08AE291E0B5
:1008B00090930D0280930C0284E033C0913041F498
:1008C0008AE191E090930D0280930C0280E129C0AF
:1008D000923041F486E091E090930D0280930C02F7
:1008E00084E11FC09330E1F48AEF90E090930D0211
:1008F00080930C028CE015C0813241F488ED90E0C9
:1009000090930D0280930C0289E00BC0823241F477
:1009100088E594E090930D0280930C028FE301C070
:1009200080E090E4909386011DC0883069F08930A2
:1009300019F4909311020FC08A3049F08B3059F4AA
:100940008BE48093FE0107C021E132E002C02BEF6F
:1009500031E081E003C02BEF31E080E030930D0205
:1009600020930C029F81911104C09E81981708F476
:10097000892F8093600010920E028091610084FFA5
:1009800047C0809160008F3F09F442C0C82F893072
:1009900008F0C8E08C1B809360008091F20198E819
:1009A00089278093F201CC2331F120910C02309100
:1009B0000D028091860186FF0BC0A3EFB1E0F90123
:1009C0008C2F8A0F94919D9331968A13FBCF09C087
:1009D000D901E3EFF1E08C2F8E0F9D9191938E134F
:1009E000FCCF8FEF8C0F90E00196820F931F9093B6
:1009F0000D0280930C026C2F83EF91E00E94BB02EA
:100A0000CC5FCC3019F08FEF80936000C093610011
:100A100084E190B3987131F48150D9F710920F02AC
:100A200010920902DF91CF91089585B78C6085BF40
:100A30008BB780688BBF8BE48093FE018AE580933F
:100A4000FD010895CF93DF93813609F4F5C1E0F5F8
:100A50008C3309F449C100F5803309F46AC048F4C5
:100A6000893009F404C28B3209F021C28AE18FB9BE
:100A700064C28A3308F01BC298B3907F98BB98B3C6
:100A80008053892B88BB62E08CE790E00E94870945
:100A900083B30E94BF0976C08D3409F4F8C148F4CD
:100AA0008E3309F41BC1833409F001C285E993E058
:100AB00040C2833509F4AEC1843509F41EC18035C6
:100AC00009F0F5C182E004C18E3609F4ABC0D8F458
:100AD000843609F45BC038F4823609F4E4C1833605
:100AE00009F4CFC1E4C1863609F45CC08D3609F043
:100AF000DEC19091280293FB882780F921E08227AC
:100B000080FB93F9CDC1843709F4E6C040F48F36F9
:100B100009F4CCC0803709F0CAC180E0D9C087375A
:100B200009F4D5C08F3709F4AFC1853709F0BFC1CB
:100B30008CC00E945A0A68E08BE690E00E94870908
:100B400067E084E790E00E948709DFEFC0E088B3A8
:100B5000807F88BB88B38C2B88BBDD2319F0000015
:100B6000D150FBCF8C2F0E94A8098EE30E947509FB
:100B700083B30E94BF09CF5FC03149F787E793E095
:100B80000E947909DF91CF910C945A0A64E08FE7B3
:100B900090E00E948709809162000E94750980910F
:100BA00063003CC068E085E890E00E94870966E049
:100BB00088EB92E00E9487090E94B60966E08EEBFE
:100BC00092E00E9487090E94B60966E084EC92E0F8
:100BD0000E9487090E94B60966E08AEC92E00E94B2
:100BE00087090E94B60966E080ED92E00E948709BD
:100BF0000E94B60966E086ED92E00E9487090E9495
:100C0000B60962E08CED92E00E94870963E08EE80D
:100C100090E00E9487098091DC01805DDF91CF9197
:100C20000C9475096BE082E990E00E948709C8E5A1
:100C3000D2E066E0CE010E9487090E94B60926969E
:100C400082E0C83BD807A9F778C16EE08EE990E052
:100C50000E94870983E793E00E94790980914E0200
:100C600086FF05C06BE08DEA90E00E9487098091C5
:100C70004E0283FF05C06CE089EB90E00E9487097B
:100C800080914E02877029F46CE086EC90E00E941F
:100C900087098091570283FD05C06AE083ED90E0EB
:100CA0000E948709DF91CF910C94B6098091570279
:100CB0008F788061809357020E940D1280915702B5
:100CC000886080935702DF91CF910C94201081E0CF
:100CD000DF91CF910C94251383E0FACF2FB7F894CE
:100CE0008AB59BB5409705C02FB7F8948AB59BB5D8
:100CF00040969BBD8ABD2FBF20C18FE893E00E9424
:100D000079098DE793E00E94790966E08DED90E026
:100D10000E94870987E793E00E94790982B70E94C1
:100D2000BF098DE793E00E94790966E084EE90E0C8
:100D30000E94870987E793E00E94790983B70E94A0
:100D4000BF098DE793E00E94790967E08BEE90E0A0
:100D50000E94870987E793E00E947909CAB5DBB54D
:100D60008D2F0E94BF098C2F0E94BF098DE793E051
:100D70000E94790966E083EF90E00E94870987E787
:100D800093E00E947909CCB5DDB58D2F0E94BF0993
:100D90008C2F0E94BF098DE793E00E94790967E0DC
:100DA0008AEF90E00E94870987E793E00E94790923
:100DB0008FB50E94BF098DE793E00E94790967E033
:100DC00082E091E00E94870987E793E00E94790919
:100DD0008EB50E94BF098DE793E00E94790967E014
:100DE0008AE091E00E94870987E793E00E947909F1
:100DF00084B50E94BF098DE793E00E94790966E0FF
:100E000082E191E00E94870987E793E00E947909D7
:100E100085B50CC00E945A0A83E793E00E947909C5
:100E200065E089E191E00E9487098DB10E94BF09C8
:100E30000E945A0A88E0F2CE0E945A0A83E793E0A1
:100E40000E9479098AB30E94BF098BB30E94BF092F
:100E50008FEF0E94B8070E94A80963E080E291E04A
:100E60000E94870989B3DF91CF910C94BF098091CB
:100E70002802982F909590FB80F98B7F877F809335
:100E800028028DE993E055C08FE893E052C090911D
:100E9000280292FB882780F921E0822780FB92F9C3
:100EA000909328024AC0DF91CF910C94FC09809165
:100EB00028028A7F877F809328020E945A0A83E74C
:100EC00093E00E94790987EE92E00E94790981E619
:100ED00092E00E94790982EC92E00E9479098FEAFF
:100EE00091E00E94790983E292E00E9479098DE401
:100EF00092E00E94790982E192E00E94790981EEF4
:100F000091E00E94790984E991E00E9479098FE7D4
:100F100091E00E94790984E491E00E94790989E6D0
:100F200091E00E94790981E092E00E9479098EE2C5
:100F300091E0DF91CF910C947909DF91CF910895E1
:100F4000F89490912902E92FF0E0E55DFD4F2081B2
:100F500082232827208387FF04C0953021F420684E
:100F60002083789408959C30D1F39B30C1F3F9CF5E
:100F70009091C20190959823F8948091C101982393
:100F800089278093C1017894892F08958091BE01AB
:100F900080958E739091BD01891719F08093BD01E2
:100FA000089580E00895F894E0912902F0E0ED536F
:100FB000FE4F908189239827908378940895F89420
:100FC000E0912902F0E0E55CFD4F90819095892346
:100FD0000C94A0070E94D3070C94A007409129020B
:100FE0004F3011F459B301C053B3842F90E0FC018A
:100FF000E55CFD4F60815627DC01A355BE4F2C9167
:10100000252320952C93DC01A356BE4F3C9135231C
:1010100032273C9325232323322F36273083FC01AC
:10102000E55DFD4F23235081252B2083FC01E357F1
:10103000FE4F532F517030FD02C022E320832081E8
:10104000215011F0208308C024E12083FC01ED53DE
:10105000FE4F8081852B80834F5F403118F4409391
:10106000290202C01092290288B3807F88BB88B30E
:1010700090912902892B88BB08958091290285309F
:1010800099F589B3876E3091C201832790918C01C5
:101090009823909590938C0120918B0128232927E8
:1010A00020938B0189238223282F23272093C20199
:1010B00082233091C101382B3093C101922F91705E
:1010C00020FD03C082E380938A0180918A018150D0
:1010D00080938A01811108C084E180938A01809104
:1010E000C001892B8093C0010895809129028A3024
:1010F000E9F483B3816C3091BE018327909189011B
:10110000982390959093890120918801282329277D
:101110002093880189238223982F93279093BE01DF
:1011200089232091BF01282B2093BF01089580ECD3
:101130008ABB88E98BBB80EB87BB87B38F6087BB9B
:10114000C4988FEF85BB979882EA81BB88E182BB08
:1011500081B3886181BB8FE59AEE0197F1F700C0FA
:10116000000082EA81BB80E182BB979A0895DF98F4
:10117000DE9808952FE088E190E00FB6F894A895E6
:1011800081BD0FBE21BD0E9497080E946C09882373
:1011900031F085B5806785BD80E183BDFFCF0E94BA
:1011A000160A0E946B0A0E94B7080E943F1585B775
:1011B0008F7485BF80912802887F877F8093280263
:1011C0008FE093E00E9479090E94510A94989798C1
:1011D00078940E94C50B10E001E0A8950E940304DA
:1011E00080E00E94B71580914B0280FF09C080917A
:1011F0004B028E7F80934B028091D5010E94220585
:101200008091280280FF25C0103120F00E945A0AE8
:1012100010E00CC01F5F83B30E94BF09163031F489
:1012200089E00E94750989B30E94BF09812F0E943D
:10123000A80980E20E94750988B3807F88BB88B3C3
:10124000812B88BB8BB388718BBB8BB38BBB97987F
:101250000AC080912A0281FF06C00E9475080E9480
:10126000EE070E943D080E94E40E8FEF0E94DF0708
:101270000E940F0C80914E0285FF27C080914D0285
:1012800086FD23C0809157028770823011F40E943E
:101290008F1180914E028F7D80934E028091570274
:1012A00083FF13C080914E0286FF07C080914E02DB
:1012B0008F7B80934E020E940D120E946011EC0100
:1012C0000E944A11BE010E9425128091FD0184FFF7
:1012D00084CF00939D0381CF10BC89E189B986E852
:1012E00080BD88E98AB980E008955D9BFECF8CB906
:1012F0000895CF93DF93EC01FE018491882321F0C0
:101300000E9475092196F8CFDF91CF910895EF9251
:10131000FF920F931F93CF93DF938C01EC01E62E86
:10132000F12CCE01801B910B8E159F0524F4899121
:101330000E947509F6CFDF91CF911F910F91FF9019
:10134000EF9008958F708A3008F0895D805D089570
:10135000CF93C82F82958F700E94A2090E947509B1
:101360008C2F0E94A209CF910C9475098DE08CB945
:101370005D9BFECF8AE08CB95D9BFECF0895CF9335
:10138000C82F87FF02C081E301C080E30E94750976
:10139000C6FF02C081E301C080E30E947509C5FF5A
:1013A00002C081E301C080E30E947509C4FF02C04E
:1013B00081E301C080E30E947509C3FF02C081E39D
:1013C00001C080E30E947509C2FF02C081E301C031
:1013D00080E30E947509C1FF02C081E301C080E380
:1013E0000E947509C0FF02C081E301C080E30E9432
:1013F0007509CF910C94B60980E090E008951F9292
:101400000F920FB60F9211248F938CB18093D50158
:1014100080914B02816080934B028091D5018CB901
:101420008F910F900FBE0F901F90189583E58DB987
:1014300008958FB9779BFECF0895EF92FF920F9397
:101440001F93CF93DF938C01EC01E62EF12CCE019C
:10145000801B910B8E159F0524F489910E94190A17
:10146000F6CFDF91CF911F910F91FF90EF900895EC
:10147000C498000008950000C49A08951F920F9226
:101480000FB60F9211248F938FB180934C028F91DE
:101490000F900FBE0F901F90189583E893E00C9467
:1014A00079098BE10E9475098BE50E94750983E734
:1014B0000C9475098BE10E9475098BE50E947509F2
:1014C00085E70C9475098FB580648FBD08958FB53D
:1014D0008F7B8FBD089582E083BF89B7816089BF0C
:1014E00089B78B7F89BF089529B72B7E29BF1FBC81
:1014F0001EBC2FB7F8941DBC1CBC9BBD8ABD2FBF62
:101500008DE08EBD88B7846188BF89B7806189BF4F
:1015100008951EBC1DBC1CBC28B7246028BF21E058
:101520002FBD22E12EBD29B72B7E29BF2FB7F894FE
:101530009BBD8ABD2FBF089584BD9093D70188B706
:10154000806488BF87E085BD89B7806489BF0895BE
:101550001F920F920FB60F9211248F938091D60194
:10156000815019F08093D60108C082E08093D601A3
:1015700080912A02826080932A028F910F900FBE81
:101580000F901F9018951F920F920FB60F92112473
:101590008F93EF93FF931EBCEDE4F2E080818F7B8D
:1015A0008083EEE4F2E0808180628083FF91EF919E
:1015B0008F910F900FBE0F901F9018951F920F9252
:1015C0000FB60F9211242F933F934F935F936F9316
:1015D0007F938F939F93AF93BF93EF93FF938091EC
:1015E000D701882331F08091D70181508093D701B2
:1015F000BBC080914D02877019F415BC0E94670A28
:1016000080914D028770833079F480E992E00E94E6
:10161000890A0E94630A89E09DE30E949C0A8091E6
:101620004D02887F80934D0280914D0287708130FA
:1016300081F580914D02869586958695877090E01C
:101640008230910541F08330910511F00197F1F45A
:1016500080E992E002C080E395E00E94890A0E943E
:10166000630A89E09DE30E949C0A80914D02869561
:1016700086958695895F8770880F880F880F90916F
:101680004D02977C982B90934D0203C015BC0E948D
:10169000670A80914D028770843069F580914D0210
:1016A000869586958695877090E08130910529F022
:1016B0000297F1F40E94670A06C080E992E00E9456
:1016C000890A0E94630A89E09DE30E949C0A809136
:1016D0004D02869586958695895F8770880F880F5D
:1016E000880F90914D02977C982B90934D0203C0E8
:1016F00015BC0E94670A80914D0287708230A1F567
:1017000080914D02869586958695877090E082300F
:10171000910549F01CF4019749F023C083309105ED
:1017200029F00497F1F40E94670A06C080E992E06C
:101730000E94890A0E94630A84E89EE10E949C0A32
:1017400080914D02869586958695895F8770880F72
:10175000880F880F90914D02977C982B90934D02A3
:1017600003C015BC0E94670AFF91EF91BF91AF9132
:101770009F918F917F916F915F914F913F912F91A9
:101780000F900FBE0F901F901895CF93DF9380910D
:101790002A028E7F826080932A0280914E028062AC
:1017A00080934E0280914D028F7B80934D028091F9
:1017B0004D02806880934D0280914E028064809338
:1017C0004E0280914E02887F856080934E02C0E079
:1017D000D0E0BE016050704046E050E0CE01885A33
:1017E0009D4F0E948B162696C036D10591F70E9418
:1017F000A2108EED90E00E949B1680934F028530E0
:1018000058F060E08EED90E00E94AD1684E294E026
:10181000DF91CF910C947909DF91CF910895CF9307
:10182000C82F4091290250E04031510508F0A5C26F
:10183000FA01E65DFF4F0C945B16843089F008F4E2
:10184000C5C18830B9F0803109F097C285E3809333
:10185000540280914E02806280934E0286E2ABC0B9
:1018600085E38093520280914E02806280934E0203
:1018700082E1A1C085E38093530280914E02806291
:1018800080934E028CE197C0843089F008F49EC1A9
:101890008830B9F0803109F070C284E3809354023B
:1018A00080914E02806280934E0285E284C084E380
:1018B0008093520280914E02806280934E0281E1B9
:1018C0007AC084E38093530280914E0280628093B9
:1018D0004E028BE170C0883071F178F48230F9F0FB
:1018E000843009F04AC283E38093520280914E0211
:1018F000806280934E0280E15EC0803131F180329F
:1019000009F03BC287E38093550285E3809356023A
:1019100080914E02806280934E028EE24CC081E440
:101920008093510280914E02806280934E020E9409
:10193000C4148CE040C083E38093530280914E0234
:10194000806280934E028AE136C083E38093540222
:1019500080914E02806280934E0284E22CC08830D7
:1019600069F178F48230F1F0843009F006C282E344
:101970008093520280914E02806280934E028FE0EB
:101980001AC0803229F1803481F1803109F0F5C12B
:1019900082E38093540280914E02806280934E02D3
:1019A00083E209C083E38093510280914E028062FA
:1019B00080934E028BE00E94B715DFC182E38093D3
:1019C000530280914E02806280934E0289E1F3CFF0
:1019D00085E38093550280E38093560280914E0206
:1019E000806280934E028DE2E6CF0E947311C5C1E2
:1019F000883081F150F48230C9F0843009F18130AF
:101A000009F0BBC10E94A113B8C1803269F18034D2
:101A1000C1F1803109F0B1C181E38093540280911A
:101A20004E02806280934E0282E2C5CF82E38093B1
:101A3000510280914E02806280934E028AE0BBCFB9
:101A400081E38093520280914E02806280934E0225
:101A50008EE0B1CF81E38093530280914E02806289
:101A600080934E0288E1A7CF82E38093550285E3FD
:101A70008093560280914E02806280934E028CE2E7
:101A80009ACF0E947F11A8C0883071F150F4823043
:101A9000E9F08430F9F0813009F051C00E94CA1396
:101AA00050C0803259F168F4803109F048C080E3B9
:101AB0008093540280914E02806280934E0281E2B4
:101AC00028C0803449F1803879F139C08DE28093A3
:101AD000510224C080E38093520280914E028062C2
:101AE00080934E028DE015C080E380935302809175
:101AF0004E02806280934E0287E10BC080E38093A8
:101B000055028093560280914E02806280934E026D
:101B10008BE20E94B71515C00E948F1180914E0272
:101B2000806280934E020DC080914D0286FD25C1DA
:101B30008091570283FF21C10E94C2111EC1C7FDBF
:101B40001CC180914D0286FF18C180914D028F7B90
:101B500080934D0241C0843081F0C0F18830B9F0EB
:101B6000803109F00AC189E38093540280914E02CA
:101B7000806280934E028AE21ECF89E380935202F4
:101B800080914E02806280934E0286E114CF89E3F9
:101B90008093530280914E02806280934E0280E2D5
:101BA0000ACF8430F9F090F0883031F1803109F0BB
:101BB000E4C088E38093540280914E028062809357
:101BC0004E0289E2F8CE843081F100F5C23009F08E
:101BD000D4C08DE28093510280914E028062809346
:101BE0004E02CBC088E38093520280914E02806205
:101BF00080934E0285E1DFCE88E38093530280918B
:101C00004E02806280934E028FE1D5CE8830B9F0CB
:101C1000803109F0B2C087E38093540280914E0274
:101C2000806280934E0288E2C6CE87E380935202A0
:101C300080914E02806280934E0284E1BCCE87E3A5
:101C40008093530280914E02806280934E028EE117
:101C5000B2CE843089F008F4B9CF8830B9F0803141
:101C600009F08BC086E38093540280914E0280621B
:101C700080934E0287E29FCE86E38093520280914A
:101C80004E02806280934E0283E195CE86E380937C
:101C9000530280914E02806280934E028DE18BCE82
:101CA000813009F06AC00E94A51267C08038A9F48B
:101CB0008091570283FD61C08077803131F082E0EE
:101CC0000E94B71580E00E94B7150E940D12809106
:101CD000570288608093570250C0882351F068E013
:101CE00083E291E00E9487098C2F0E94A809C7FD1A
:101CF00044C08091570283FF40C0877F8093570282
:101D00000E949E123AC0803841F480914D0287FFB4
:101D100034C080914D028F7709C087FD2EC080911D
:101D20004D0287FD2AC080914D02806880934D024C
:101D300024C0803439F0803841F0813049F40E9469
:101D4000BB111BC00E94A21118C00E94B11115C086
:101D5000882399F068E08CE291E00AC088718830AD
:101D600061F0803151F0CC2341F068E085E391E0EF
:101D70000E9487098C2F0E94A80988E10E94B80759
:101D8000C82F883019F0803159F011C08091570266
:101D900083FF18C082E00E945112CF910C9463110E
:101DA0008091570283FF0EC0CF910C94E3128823D9
:101DB00049F065E08EE391E00E9487098C2FCF9176
:101DC0000C94A809CF9108950E94C607823029F487
:101DD00081E00E94E01581E053C0863029F481E063
:101DE0000E94E01582E04CC0843029F482E00E9419
:101DF000E01583E045C08C3029F483E00E94E015B3
:101E000084E03EC08E3029F484E00E94E01585E035
:101E100037C08A3029F485E00E94E01586E030C0A2
:101E2000883029F486E00E94E01587E029C08831D7
:101E300029F487E00E94E01588E022C08A3129F465
:101E400088E00E94E01589E01BC08E3129F489E00A
:101E50000E94E0158AE014C08C3129F48AE00E94C7
:101E6000E0158BE00DC0843129F48BE00E94E01571
:101E70008CE006C0863139F48CE00E94E0158DE0DC
:101E800080935002CCC0823129F48DE00E94E0158D
:101E90008EE0F6CF8031E9F48EE00E94E0158FE00D
:101EA0008093500280914F028111B9C080915702F6
:101EB0008770813009F0B3C080914E028770813005
:101EC00009F0ADC080914E02887F80934E0284E07D
:101ED000A4C08033F1F48FE00E94E01580E180938C
:101EE000500280914F0281119AC0809157028770F1
:101EF000813009F094C080914E028770823009F0E1
:101F00008EC080E00E94251380914E02887F816000
:101F100064C08233F1F480E10E94E01581E1809396
:101F2000500280914F0281117AC0809157028770D0
:101F3000813009F074C080914E028770833009F0BF
:101F40006EC080E00E94251380914E02887F8260DF
:101F500044C08633F1F481E10E94E01582E1809370
:101F6000500280914F0281115AC0809157028770B0
:101F7000813009F054C080914E028770843009F09E
:101F80004EC080E00E94251380914E02887F8360BE
:101F900024C0843329F582E10E94E01583E1809317
:101FA00050020E94851480914F02811113C08091CC
:101FB00057028770813071F480914E0287708530AE
:101FC00049F480E00E94251380914E02887F84604E
:101FD00080934E0280914E028F7E80934E021FC0EE
:101FE0008C3311F583E10E94E01584E18093500267
:101FF00080914E02806180934E0280914F02811148
:102000000EC0809157028770813049F480914E0252
:10201000887F856080934E0280E00E942513809126
:102020004E02806280934E02809150028111809313
:102030009C0380915702857011F41092500208950C
:102040001F93CF93DF9310922902D2E3C5E311E4EB
:10205000809129028A3008F071C088B3807F88BBE4
:1020600088B390912902892B88BB80E400008150BD
:10207000E9F723B320958091290290E08A309105F9
:10208000C8F5FC01E65CFF4F0C945B1685E33DC090
:1020900021FF34C01093510231C021FF03C083E3FC
:1020A0008093510225FF2CC087E380935502C09393
:1020B000560226C021FDD093510225FF23C0C093B4
:1020C000550280E3809356021DC025FF1DC0D093AA
:1020D0005502C093560218C080E325FF16C08093B6
:1020E00055028093560211C088E30FC087E30DC0EC
:1020F00086E30BC08DE209C089E307C084E305C015
:1021000083E303C082E301C081E322FD8093520296
:1021100023FD8093530224FD8093540262E084E403
:1021200091E00E94870980914E02806280934E0266
:10213000809129028F5F809329028ACFDF91CF910E
:102140001F910895CF93DF938DE0809329028091B2
:102150002902833008F48BC088B3807F88BB88B3A2
:1021600090912902892B88BB80E800008150E9F713
:10217000D3B3CD2FC0958091290290E0FC01339715
:10218000EB30F10508F06FC0EC5BFF4F0C945B1671
:10219000C6FF69C080915702887F63C0C6FF63C0D5
:1021A00080915702887F81605CC0C6FF5CC08091CF
:1021B0005702887F826055C00E94750854C00E94F3
:1021C000EE078091290281508093290230915702B5
:1021D000C7FF0FC090E0FC01E55DFD4F2081206846
:1021E0002083FC01E55CFD4FD083386030935702BB
:1021F0003AC0832F877F8093570280914E028F7B56
:1022000080934E0230C00E94EE07809129028150D7
:1022100080932902C7FF11C090914D029F77909340
:102220004D0290E0FC01E55DFD4F20812068208398
:10223000FC01E55CFD4FD08316C080914D028068A3
:1022400080934D0210C0C0FF06C0809157028F7866
:10225000806180935702C6FF06C0809157028F7835
:102260008063809357028091290281506ECF88B39A
:10227000807F88BB809157028770823021F4DF9184
:10228000CF910C948F11DF91CF9108958FB5806419
:102290008FBD089580915002811106C080E2809325
:1022A000DA018093DB0109C06AE00E944F16905D5D
:1022B0009093DB01805D8093DA018AED91E00895CF
:1022C00081E592E00895EDEDF2E085E5DF011197FB
:1022D0008C938083B69693E0E13CF907B9F789E0E7
:1022E00094E00C94790985E00E94B715809157021B
:1022F000887F80935702109250020C94201086E041
:102300000E94B71580915702887F816080935702A1
:102310000E94750880919C0380935002089587E085
:102320000E94B71580915702887F82608093570280
:102330001092500246E050E060EE73E081E592E0DA
:102340000C946E16809157028077803319F482E0E6
:102350000E94B715809157028F7880628093570250
:10236000089583E00E94B715809157028F788063AB
:10237000809357020895809157028F7880618093EF
:1023800057020895CF93DF93CDB7DEB727970FB6E7
:10239000F894DEBF0FBECDBF87E0E7E4F1E0DE01D9
:1023A000119601900D928A95E1F780914D0286FD7C
:1023B0002BC080914D02806480934D028FE494E0A5
:1023C0000E94790962E0CE0101960E94870986E4A5
:1023D00094E00E94790966E0CE0101960E94870987
:1023E0000E94380A8AE10E94190A62E0CE01019631
:1023F0000E941D0A66E0CE0101960E941D0A85EA30
:102400000E94190A0E943B0A27960FB6F894DEBF75
:102410000FBECDBFDF91CF9108950E942010809113
:1024200057028077803159F00E94C21189E09DE304
:102430000E94740A80914D0286FDFCCF0895809120
:102440004E02806280934E0208950F931F93CF93A4
:10245000DF93EC018B018FE494E00E94790962E044
:10246000CE010E94870986E494E00E94790966E023
:10247000C8010E9487090E94380A8AE10E94190A4D
:1024800062E0CE010E941D0A66E0C8010E941D0A9A
:1024900085EA0E94190ADF91CF911F910F910C9448
:1024A0003B0A1F93CF93DF93CDB7DEB72A970FB6C2
:1024B000F894DEBF0FBECDBF182F80E289878A87D0
:1024C00086E0E5E6F0E0DE01119601900D928A9536
:1024D000E1F7143051F00E944A11FC018081898794
:1024E0000E944A11FC0181818A87612F70E0660F8A
:1024F000771F6B557C4F42E050E0CE0107960E945B
:102500006E166F817885CE0101960E947716BE0106
:102510006F5F7F4FCE0109960E942512143021F083
:1025200080E090E00E94740A2A960FB6F894DEBF0D
:102530000FBECDBFDF91CF911F91089581E00E9422
:10254000B7151EBC84E00C94511244E050E067EED5
:1025500073E081E592E00E946116892B11F590915C
:1025600057029770913071F580915002843151F586
:1025700080915502803319F410924F020EC08233BD
:1025800019F490934F0209C0853311F482E003C01F
:10259000873319F483E080934F0280914F020C94AB
:1025A000511280914F0281110DC0809157028770A6
:1025B000813041F480E592E00E94371684E294E095
:1025C0000C9479090895809157028770813079F5CC
:1025D00080914F0281112BC0909151028091500245
:1025E0009134A9F4853018F124E130E0281B310939
:1025F00086E0829FF001839FF00D1124E85AFD4F81
:10260000A1E5B2E001900D928A95E1F710C090E04B
:10261000019726E0289FB001299F700D1124605A70
:102620007F4F46E050E081E592E00E948B1680915A
:102630005002843121F480914F020C945112809108
:102640004E02806280934E020895823009F449C0A0
:10265000D0F4882341F1813009F06FC080E395E028
:102660000E94890A0E94461189E09DE30E949C0A0B
:1026700080914D02887F816080934D0280914D0250
:10268000877C886157C08430B9F008F43FC085303A
:1026900009F053C080E992E00E94890A0E94461125
:1026A00085E294EF42C080E992E00E94890A0E948C
:1026B000461189E09DE339C080E992E00E94890AD1
:1026C0000E94461189E09DE30E949C0A80914D0280
:1026D000887F846080934D0280914D02877C806169
:1026E00029C080E992E00E94890A0E94461184E88C
:1026F0009EE10E949C0A80914D02887F82608093B7
:102700004D0280914D02877C806214C085E491E087
:102710000E94890A0E94461189E09DE30E949C0A5A
:1027200080914D02887F836005C00E949C0A809141
:102730004D02887F80934D0208958FB58F7B8FBDAA
:10274000089580914F02811124C046E050E069ED68
:1027500073E081E592E00E946116892B51F48FEFBE
:1027600000008150E9F70E94251380914E02886095
:1027700003C080914E02877F80934E028091570262
:102780008077803131F46CE771E083E891E00C945C
:102790002512089580915702877009F0B5C0809185
:1027A0004F02813049F008F4A6C0823009F47DC0A0
:1027B000833009F47CC008958091500290E0FC01C0
:1027C0003197E431F10508F09FC0E15BFF4F0C94B5
:1027D0005B16809152028093620080915302809335
:1027E000630081E08FC0E091DC0186E2E89FF001A8
:1027F0001124E452FD4F8091520290915302918333
:10280000808380E00E9425138091DC018F5F8630F9
:1028100018F48093DC0102C01092DC0182E00E9477
:10282000251380914D02877C806180934D0208952D
:10283000A091DC0186E2A89FD0011124AA52BD4FCD
:1028400008C0A091DC0186E2A89FD0011124A0530A
:10285000BD4F86E0E1E5F2E001900D928A95E1F747
:1028600050C0A091DC0186E2A89FD0011124A6539C
:10287000BD4FEFCFA091DC0186E2A89FD0011124CB
:10288000AC53BD4FE6CFA091DC0186E2A89FD001FA
:102890001124A254BD4FDDCFA091DC0186E2A89F98
:1028A000D0011124A854BD4FD4CF0C9463112091B2
:1028B0005002253048F184E190E0821B910926E026
:1028C000289FB001299F700D1124DB01A85ABD4F2C
:1028D000E1E5F2E001900D922A95E1F76050704039
:1028E00046E050E081E592E00E94A31684E294E085
:1028F0000E94790906C080914E0283FF02C083E0E6
:1029000001C080E00C94251308950F931F93CF937B
:10291000DF9380914F02811132C0809157028770FE
:1029200071F580914E0284FF2AC00CED12E0CDEDCE
:10293000D2E090915202F801808198130CC09091DE
:1029400053028881981307C080E0DF91CF911F91D7
:102950000F910C9425136AE08EE491E00E948709A0
:1029600061E0C8010E94870961E0CE010E948709E9
:102970000A5D1F4FA696F3E0C13CDF07D1F6DF9159
:10298000CF911F910F9108950F931F93CF93DF93D2
:1029900000D000D000D0CDB7DEB780914F028823A1
:1029A00021F083E3809351025FC080914E0283FD4A
:1029B00007C085E00E94251366E089E591E00AC022
:1029C00080915502833348F082E00E94251366E02F
:1029D00080E691E00E94870947C042E050E067E648
:1029E00071E081E592E00E947E16892B39F082E049
:1029F0000E94251365E08AE691E0ECCF1091530226
:102A00000091540246E050E062ED70E0CE01019684
:102A10000E948B1644E050E060E771E0CE01019621
:102A20000E947E16811120C080ED800F912F990F9A
:102A30009056292F220F220F290F820F90915502B5
:102A4000903369F4853068F480914E02877061F0AC
:102A500085E00E94251366E085E791E0BBCF8031D9
:102A600018F082E00E94251326960FB6F894DEBF78
:102A70000FBECDBFDF91CF911F910F9108950E949E
:102A8000150510929D0308951F93CF93DF93CDB743
:102A9000DEB72A970FB6F894DEBF0FBECDBF172F53
:102AA000888799876A87CE0108960E94E91529834D
:102AB0003A834B835C836D837E838F831E3E29F430
:102AC000CE0101960E9437160EC087E0FE013196B6
:102AD000A0E5B2E001900D928A95E1F780914E0257
:102AE000806280934E0284E02A960FB6F894DEBF8F
:102AF0000FBECDBFDF91CF911F910895FC018FEDE7
:102B000091E090930D0280930C0280818076803258
:102B100061F58181893091F028F4813069F083304A
:102B2000B1F023C08B30C9F08D30F9F46481758128
:102B3000828193810C94441588E0089581E0268178
:102B400037812130310509F080E081950895838136
:102B500081110BC010926400089584E690E0909378
:102B60000D0280930C0281E0089580E00895909119
:102B70004D0297FD24C090919D03992301F19091FE
:102B8000E7018917E1F097988093E7019091FD01A3
:102B900094FFFCCF90E0880F991FFC01E956FB4F92
:102BA000E491E093E901FC01E856FB4F84918093A6
:102BB000EB0168E089EE91E00E94E003979A0895A6
:102BC00090915002981302C088E001C089E00C94F3
:102BD000B715CF93DF93CDB7DEB727970FB6F8942D
:102BE000DEBF0FBECDBFFC018081282F207330E0F7
:102BF00094E0359527959A95E1F7213019F0322F19
:102C0000306301C031E4482F4F7040636181562F1B
:102C100058775695569556955063660F6E7086FB9D
:102C2000882780F9682B60632281922F90769032FA
:102C300069F028F491110FC0A0E370E30CC0903448
:102C400041F0903641F4A5E377E305C0A5E372E3D4
:102C500002C0A0E375E32F718A2F90E027960FB68C
:102C6000F894DEBF0FBECDBFDF91CF9108950097DE
:102C7000A1F0FC012191CF0130E02150310946E063
:102C8000429FB001439F700D1124605A7F4F46E070
:102C900050E00E94A31680E0089581E00895991BFA
:102CA00079E004C0991F961708F0961B881F7A9543
:102CB000C9F780950895EE0FFF1F0590F491E02D60
:102CC0000994FB01DC0104C08D910590801921F469
:102CD00041505040C8F7881B990B0895FB01DC0157
:102CE00002C005900D9241505040D8F70895FB0165
:102CF000DC0105900D920020E1F70895FB01DC0155
:102D000004C08D910190801921F441505040C8F7C2
:102D1000881B990B0895DC01CB01FC01E199FECFE2
:102D200006C0FFBBEEBBE09A31960DB20D9241504A
:102D30005040B8F70895E199FECF9FBB8EBBE09A53
:102D400099278DB30895DC01CB0103C02D910E941A
:102D5000AE1641505040D0F70895262FE199FECF8E
:102D60009FBB8EBB2DBB0FB6F894E29AE19A0FBEC3
:082D700001960895F894FFCFCD
:102D7800FF5A5555012020202020201B5B4A1B5B51
:102D880033336D00504F5254430D0A003A20000D62
:102D9800444F4D20000D0A4D574F440D0A000909B4
:102DA80040000D0A464D542D4E45540D0A000D0A9B
:102DB80055484620436F6E74726F6C0A00666972DC
:102DC80073742072756E0D0A00546F6E65207265FB
:102DD8006376640D0A0053574F442076616C69642A
:102DE8000D0A00554846206F66660D0A0054434E8A
:102DF80054300A0054434352300A000A4F435231B8
:102E0800410A0054434E54310A005443435231415D
:102E18000A005443435231420A000A54434E543282
:102E28000A0054434352320A000A535043520A00DC
:102E38004920000A635F775F313109000A635F77D1
:102E48005F3133090009635F775F313509000A6331
:102E58005F7709002E0D00383838383838000D0AE9
:102E6800436865636B656420005820746F6E650065
:102E780058203E2E32350041300058203E31350072
:102E88003330303000582053574F44003030303002
:062E9800323700522D004C
:00000001FF
