:100000000C9457020C9474020C948F020C9474029A
:100010000C94AE0A0C9474020C94930A0C9474021F
:100020000C9474020C94780A0C940E0A0C94CF0968
:100030000C9474020C9474020C9474020C94740268
:100040000C9474020C9474020C9474020C94740258
:100050000C947402ED0BFC0B0D0C2F0C550C7B0C4F
:10006000C60CD40CE20CF00C050D0B0D380D4E0D2A
:10007000720D630DF00EF20EF70E040F0F0F160F38
:10008000260F1E0F200F220F720F780F7F0FDD0F2C
:10009000DD0FDD0FDD0F860F890FAD0FCD0F98122D
:1000A0003313331333133313331333133313331320
:1000B0003313331333133313A212C712D012E012C7
:1000C000E912F212FB120902220001010080280944
:1000D0000400000103010100092101010001223F88
:1000E000000705810308000A120110010000000842
:1000F000C016DB270001010203010C0331002E00B2
:1001000031002E00310014035500480046002D0038
:1001100052006100640069006F00100376006F00F8
:10012000740069002E006E006C0004030904660967
:1001300073686F77206C6F61646564204D574F441E
:100140000D0A00006D0972656164206368616E6E5E
:10015000656C0D0A4D096D6F6E69746F722063686E
:10016000616E6E656C0D0A00006209636865636B01
:100170002062617564206572726F720D0A00004220
:1001800053095265736574207465726D696E616C94
:100190000D0A000054414209546F67676C65205096
:1001A0006F72744320726561646F75740A00003E5B
:1001B00009696E63726561736520617564696F209A
:1001C000667265712E0D0A3C096465637265617320
:1001D0006520617564696F20667265712E0D0A0075
:1001E0000063094869646520637572736F720D0A54
:1001F000430953686F7720637572736F720D0A003D
:10020000006409446179206F66204D6F6E74680A3E
:100210000000530953504920726567697374657211
:100220000A00007009706C617920626565700D0AC2
:100230005009706C61792070756C73650D0A5709EF
:10024000706C617920776176650D0A00005409545D
:10025000696D6572205265676973746572730A000F
:10026000003009506F72744320726561646F757459
:1002700020666F7220616C6C204D756C7469706CB7
:100280006578206368616E6E656C730D0A312E2E81
:100290003909506F72744320726561646F75742000
:1002A000666F722073656C6563746564204D756C50
:1002B0007469706C6578206368616E6E656C0D0A98
:1002C0000000610973686F7720726561646F7574EF
:1002D00020666F72206164646974696F6E616C205E
:1002E0006B6579730A000048454C5020666F722098
:1002F0007465726D696E616C0D0A0A0000094465CF
:1003000062756720656E61626C65643A2000001B4F
:10031000630A414E2F4152432D3136342055484611
:100320002049496120416972626F726E6520526195
:1003300064696F2072656164792E2E2E0D0A1B5B35
:100340007300001B5B4A5761726E696E673A204208
:100350006175642072617465206F7574736964657A
:100360002072656C6961626C652072616E676521DF
:100370000A00001B5B4A001B5B306D00001B5B31F9
:100380006D00001B5B33326D00001B5B4800001BDF
:10039000631B5B73001B5B3F32356800001B5B3FD8
:1003A00032356C0000CB03C403BD03B603AF03209A
:1003B000202020202000464D54434847004552410C
:1003C000534520004D2D4C4F4144005645522F4F70
:1003D000500038383838383800333130343235004E
:1003E00032343330303000323230303030001B5B4A
:1003F00031313B3230661B5B324B546F6E6520727D
:100400006563656976656400001B5B31323B3230A1
:10041000661B5B324B65726173696E67204D2D57A9
:100420004F4400001B5B31353B3230661B5B324B67
:1004300077726974696E6720746F20656570726F7A
:100440006D2E2E2E00001B5B363B33306600001BEA
:100450005B353B333466000005010906A101050741
:1004600019E029E71500250175019508810295011C
:100470007508810395057501050819012905910283
:100480009501750391039506750815002565050707
:10049000190029658100C00000073D073E073F079E
:1004A0004007410742074307440745000000112465
:1004B0001FBECFE5D4E0DEBFCDBF11E0A0E6B0E0C7
:1004C000EEE2FAE202C005900D92A638B107D9F724
:1004D00013E0A6E8B1E001C01D92AC39B107E1F725
:1004E0000E948A080C9415150C940000A82FB92FAF
:1004F00080E090E041E050EA609530E009C02D9145
:1005000082279795879510F084279527305EC8F34A
:100510006F5FA8F30895EADF8D939D930895CF93BD
:10052000CFB7CF93DF93C395849BE9F7849B0BC030
:10053000849B09C0849B07C0849B05C0849B03C027
:10054000849B01C08BC06F93C091F601DD27C3501F
:10055000DE4F2F9365E5849B03C02F916F91E6CF0B
:100560000F931F934F9320E040E15F9300B3087116
:1005700004FB27F93F9350E03BE039C01871406419
:100580002F77012F5F5F1EC0406810B318712F775F
:1005900052501FC0406400B32F770871D1F15F5FE4
:1005A00000C023C0406210B32F77187191F15F5FD4
:1005B00000C025C008711027515012F45D5F000083
:1005C000115027952C3F10B3C8F618710127015020
:1005D00027952C3FC8F64227499300B3087110278E
:1005E0004F73115027952C3FA8F64695469510B3AA
:1005F000187179F00127015027952C3F98F66B5A16
:1006000060F3315000B3B0F600C010E81ABF002705
:1006100019C03B503195C31BD04010E81ABF088168
:10062000033C09F10B34F9F02091F4011981110F09
:100630001213EDCF4A81441F093651F10D3211F0EA
:10064000013E29F70093FB013F915F914F911F916C
:100650000F912F916F91CAB7C7FD65CFDF91CF91F1
:10066000CFBFCF9118952091FB01222369F3109100
:10067000F901112391F5343092F13093F90120936F
:10068000F5011091F6013BE0311B3093F60127C0D4
:100690000091F90101300CF50AE54F7049F43091F1
:1006A000610034FD1DC000936100CDEDD1E01CC0A0
:1006B0003091E80134FD14C00093E801C9EED1E0A7
:1006C00013C0052710E000C0000002BB1AC00527B8
:1006D00010E0221F1DC010E021C04AE502C032ED2B
:1006E000432FC4E1D0E032E011B31861949A02B311
:1006F00011BB58E120E865E320FF052702BB2795E1
:1007000017951C3FF0F66695B8F7B1F720FF05275F
:1007100002BB279517951C3FD0F62795179517FF15
:10072000052700001C3F02BBB0F629913A9519F746
:10073000077E1091FA01110FC651D04002BB11F093
:100740001093F40110E81ABF006111B3177E402F17
:10075000477E54E05A95F1F702BB11BB42BB74CF00
:10076000CF93C62F2091E80124FF07C02091E90113
:1007700038E823272093E90103C02AE52093E80104
:10078000DC01EAEEF1E08C2F8E0F9D9191938E1398
:10079000FCCF6C2F8AEE91E00E948B02CC5FC0935D
:1007A000E801CF910895CF93DF938091F9018350B1
:1007B00087FDB3C09091F6012091F5012D3209F02B
:1007C000AAC0883009F0A7C0CCE0D0E0C91BD1098D
:1007D000C350DE4F83EC8093DD018AE58093610096
:1007E000109286018881807621F0CE010E943F140C
:1007F00089C09A811092E6018981811106C0109208
:10080000E70126EE31E082E079C0853019F490935B
:10081000FA0171C0863009F058C08B81813041F4F3
:1008200088EE90E09093F8018093F70182E149C04F
:10083000823041F486EC90E09093F8018093F701C8
:1008400082E23FC0833041F5911108C08AE291E015
:100850009093F8018093F70184E033C0913041F424
:100860008AE191E09093F8018093F70180E129C03B
:10087000923041F486E091E09093F8018093F70183
:1008800084E11FC09330E1F48AEF90E09093F80187
:100890008093F7018CE015C0813241F488ED90E03F
:1008A0009093F8018093F70189E00BC0823241F404
:1008B00088E594E09093F8018093F7018FE301C0FD
:1008C00080E090E4909386011DC0883069F0893003
:1008D00019F49093FC010FC08A3049F08B3059F421
:1008E0008BE48093E90107C02CEF31E002C026EED3
:1008F00031E081E003C026EE31E080E03093F80182
:100900002093F7019F81911104C09E81981708F4EC
:10091000892F809360001092F9018091610084FF1B
:1009200047C0809160008F3F09F442C0C82F8930D2
:1009300008F0C8E08C1B809360008091DD0198E88E
:1009400089278093DD01CC2331F12091F70130918B
:10095000F8018091860186FF0BC0AEEDB1E0F90190
:100960008C2F8A0F94919D9331968A13FBCF09C0E7
:10097000D901EEEDF1E08C2F8E0F9D9191938E13A6
:10098000FCCF8FEF8C0F90E00196820F931F909316
:10099000F8018093F7016C2F8EED91E00E948B029D
:1009A000CC5FCC3019F08FEF80936000C093610072
:1009B00084E190B3987131F48150D9F71092FA0123
:1009C0001092F401DF91CF91089585B78C6085BFB7
:1009D0008BB780688BBF8BE48093E9018AE58093B5
:1009E000E8010895CF93DF93813609F4F5C1E0F56E
:1009F0008C3309F449C100F5803309F46AC048F426
:100A0000893009F404C28B3209F021C28AE18FB91E
:100A100064C28A3308F01BC298B3907F98BB98B326
:100A20008053892B88BB62E08CE790E00E945709D5
:100A300083B30E948F0976C08D3409F4F8C148F45D
:100A40008E3309F41BC1833409F001C285E993E0B8
:100A500040C2833509F4AEC1843509F41EC1803526
:100A600009F0F5C182E004C18E3609F4ABC0D8F4B8
:100A7000843609F45BC038F4823609F4E4C1833665
:100A800009F4CFC1E4C1863609F45CC08D3609F0A3
:100A9000DEC19091130293FB882780F921E0822721
:100AA00080FB93F9CDC1843709F4E6C040F48F365A
:100AB00009F4CCC0803709F0CAC180E0D9C08737BB
:100AC00009F4D5C08F3709F4AFC1853709F0BFC12C
:100AD0008CC00E942A0A68E08BE690E00E945709C9
:100AE00067E084E790E00E945709DFEFC0E088B339
:100AF000807F88BB88B38C2B88BBDD2319F0000076
:100B0000D150FBCF8C2F0E9478098EE30E944509BB
:100B100083B30E948F09CF5FC03149F787E793E025
:100B20000E944909DF91CF910C942A0A64E08FE773
:100B300090E00E945709809162000E9445098091CF
:100B400063003CC068E085E890E00E94570966E0D9
:100B500087EB92E00E9457090E94860966E08DEBC0
:100B600092E00E9457090E94860966E083EC92E0B9
:100B70000E9457090E94860966E089EC92E00E9473
:100B800057090E94860966E08FEC92E00E9457099F
:100B90000E94860966E085ED92E00E9457090E9456
:100BA000860962E08BED92E00E94570963E08EE8CF
:100BB00090E00E9457098091C801805DDF91CF913C
:100BC0000C9445096BE082E990E00E945709C7E563
:100BD000D2E066E0CE010E9457090E94860926965F
:100BE00082E0C73BD807A9F778C16EE08EE990E0B4
:100BF0000E94570983E793E00E94490980914D02C2
:100C000086FF05C06BE08DEA90E00E945709809155
:100C10004D0283FF05C06CE089EB90E00E9457090C
:100C200080914D02877029F46CE086EC90E00E9480
:100C300057098091560283FD05C06AE083ED90E07C
:100C40000E945709DF91CF910C948609809156023A
:100C50008F788061809356020E94AE108091560278
:100C6000886080935602DF91CF910C94CA0E81E088
:100C7000DF91CF910C94D41183E0FACF2FB7F89481
:100C80008AB59BB5409705C02FB7F8948AB59BB538
:100C900040969BBD8ABD2FBF20C18FE893E00E9484
:100CA00049098DE793E00E94490966E08DED90E0E7
:100CB0000E94570987E793E00E94490982B70E9482
:100CC0008F098DE793E00E94490966E084EE90E089
:100CD0000E94570987E793E00E94490983B70E9461
:100CE0008F098DE793E00E94490967E08BEE90E061
:100CF0000E94570987E793E00E944909CAB5DBB50E
:100D00008D2F0E948F098C2F0E948F098DE793E011
:100D10000E94490966E083EF90E00E94570987E747
:100D200093E00E944909CCB5DDB58D2F0E948F0953
:100D30008C2F0E948F098DE793E00E94490967E09C
:100D40008AEF90E00E94570987E793E00E944909E3
:100D50008FB50E948F098DE793E00E94490967E0F3
:100D600082E091E00E94570987E793E00E944909D9
:100D70008EB50E948F098DE793E00E94490967E0D4
:100D80008AE091E00E94570987E793E00E944909B1
:100D900084B50E948F098DE793E00E94490966E0BF
:100DA00082E191E00E94570987E793E00E94490998
:100DB00085B50CC00E942A0A83E793E00E94490986
:100DC00065E089E191E00E9457098DB10E948F0989
:100DD0000E942A0A88E0F2CE0E942A0A83E793E062
:100DE0000E9449098AB30E948F098BB30E948F0920
:100DF0008FEF0E9488070E94780963E080E291E00B
:100E00000E94570989B3DF91CF910C948F0980918B
:100E10001302982F909590FB80F98B7F877F8093AA
:100E200013028DE993E055C08FE893E052C0909192
:100E3000130292FB882780F921E0822780FB92F938
:100E4000909313024AC0DF91CF910C94CC0980910A
:100E500013028A7F877F809313020E942A0A83E706
:100E600093E00E94490987EE92E00E94490981E6D9
:100E700092E00E94490982EC92E00E9449098FEABF
:100E800091E00E94490983E292E00E9449098DE4C1
:100E900092E00E94490982E192E00E94490981EEB4
:100EA00091E00E94490984E991E00E9449098FE795
:100EB00091E00E94490984E491E00E94490989E691
:100EC00091E00E94490981E092E00E9449098EE286
:100ED00091E0DF91CF910C944909DF91CF91089572
:100EE000F89490911402E92FF0E0E65DFD4F208127
:100EF00082232827208387FF04C0953021F42068AF
:100F00002083789408959C30D1F39B30C1F3F9CFBE
:100F10009091150290959823F89480912902982336
:100F20008927809329027894892F08958091BE01A2
:100F300080958E739091BD01891719F08093BD0142
:100F4000089580E00895F894E0911402F0E0E85EDE
:100F5000FD4F908189239827908378940895F89481
:100F6000E0911402F0E0E65CFD4F908190958923BA
:100F70000C9470070E94A3070C9470074091140210
:100F80004F3011F459B301C053B3842F90E0FC01EA
:100F9000E65CFD4F60815627DC01A355BE4F2C91C6
:100FA000252320952C93DC01A356BE4F3C9135237D
:100FB00032273C9325232323322F36273083FC010D
:100FC000E65DFD4F23235081252B2083FC01E35751
:100FD000FE4F532F517030FD02C022E32083208149
:100FE000215011F0208308C024E12083FC01E85E39
:100FF000FD4F8081852B80834F5F403118F44093F3
:10100000140202C01092140288B3807F88BB88B398
:1010100090911402892B88BB089580911402853029
:1010200099F589B3876E30911502832790918C01D1
:101030009823909590938C0120918B012823292748
:1010400020938B0189238223282F232720931502A5
:10105000822330912902382B30932902922F9170EC
:1010600020FD03C082E380938A0180918A01815030
:1010700080938A01811108C084E180938A01809164
:101080001702892B809317020895809114028A30E9
:10109000E9F483B3816C3091BE018327909189017B
:1010A00098239095909389012091880128232927DE
:1010B0002093880189238223982F93279093BE0140
:1010C000892320912802282B20932802089580EC60
:1010D0008ABB88E98BBB80EB87BB87B38F6087BBFC
:1010E000C4988FEF85BB979882EA81BB88E182BB69
:1010F00081B3886181BB8FE59AEE0197F1F700C05B
:10110000000082EA81BB80E182BB979A0895DF9854
:10111000DE9808952FE088E190E00FB6F894A89546
:1011200081BD0FBE21BD0E9467080E943C09882333
:1011300031F085B5806785BD80E183BDFFCF0E941A
:10114000E6090E943B0A0E9487080E94EE1385B7B9
:101150008F7485BF80911302887F877F80931302ED
:101160008FE093E00E9449090E94210A9498979881
:1011700078940E94950B10E001E0A8950E94D3039B
:1011800080E00E94781480914A0280FF09C080911B
:101190004A028E7F80934A028091C1010E94F2042C
:1011A0008091130280FF25C0103120F00E942A0A8E
:1011B00010E00CC01F5F83B30E948F09163031F41A
:1011C00089E00E94450989B30E948F09812F0E94FE
:1011D000780980E20E94450988B3807F88BB88B384
:1011E000812B88BB8BB388718BBB8BB38BBB9798E0
:1011F0000AC08091160281FF06C00E9445080E9425
:10120000BE070E940D080E94990D8FEF0E94AF0744
:101210000E94DF0B80914D0285FF27C080914C0218
:1012200086FD23C0809156028770823011F40E949F
:10123000321080914D028F7D80934D028091560235
:1012400083FF13C080914D0286FF07C080914D023D
:101250008F7B80934D020E94AE100E940A10EC0119
:101260000E94F40FBE010E94C6108091E80184FF25
:1012700084CF00939B0381CF10BC89E189B986E8B4
:1012800080BD88E98AB980E008955D9BFECF8CB966
:101290000895CF93DF93EC01FE018491882321F020
:1012A0000E9445092196F8CFDF91CF910895EF92E2
:1012B000FF920F931F93CF93DF938C01EC01E62EE7
:1012C000F12CCE01801B910B8E159F0524F4899182
:1012D0000E944509F6CFDF91CF911F910F91FF90AA
:1012E000EF9008958F708A3008F0895D805D0895D1
:1012F000CF93C82F82958F700E9472090E94450972
:101300008C2F0E947209CF910C9445098DE08CB905
:101310005D9BFECF8AE08CB95D9BFECF0895CF9395
:10132000C82F87FF02C081E301C080E30E94450906
:10133000C6FF02C081E301C080E30E944509C5FFEA
:1013400002C081E301C080E30E944509C4FF02C0DE
:1013500081E301C080E30E944509C3FF02C081E32D
:1013600001C080E30E944509C2FF02C081E301C0C1
:1013700080E30E944509C1FF02C081E301C080E310
:101380000E944509C0FF02C081E301C080E30E94C2
:101390004509CF910C94860980E090E008951F9252
:1013A0000F920FB60F9211248F938CB18093C101CD
:1013B00080914A02816080934A028091C1018CB978
:1013C0008F910F900FBE0F901F90189583E58DB9E8
:1013D00008958FB9779BFECF0895EF92FF920F93F8
:1013E0001F93CF93DF938C01EC01E62EF12CCE01FD
:1013F000801B910B8E159F0524F489910E94E909A9
:10140000F6CFDF91CF911F910F91FF90EF9008954C
:10141000C498000008950000C49A08951F920F9286
:101420000FB60F9211248F938FB180934B028F913F
:101430000F900FBE0F901F90189583E893E00C94C7
:1014400049098BE10E9445098BE50E94450983E724
:101450000C9445098BE10E9445098BE50E944509E2
:1014600085E70C9445098FB580648FBD08958FB5CD
:101470008F7B8FBD089582E083BF89B7816089BF6C
:1014800089B78B7F89BF089529B72B7E29BF1FBCE1
:101490001EBC2FB7F8941DBC1CBC9BBD8ABD2FBFC2
:1014A0008DE08EBD88B7846188BF89B7806189BFB0
:1014B00008951EBC1DBC1CBC28B7246028BF21E0B9
:1014C0002FBD22E12EBD29B72B7E29BF2FB7F8945F
:1014D0009BBD8ABD2FBF089584BD9093C30188B77B
:1014E000806488BF87E085BD89B7806489BF08951F
:1014F0001F920F920FB60F9211248F938091C20109
:10150000815019F08093C20108C082E08093C2012B
:10151000809116028260809316028F910F900FBE09
:101520000F901F9018951F920F920FB60F921124D3
:101530008F93EF93FF931EBCECE4F2E080818F7BEE
:101540008083EDE4F2E0808180628083FF91EF91FF
:101550008F910F900FBE0F901F9018951F920F92B2
:101560000FB60F9211242F933F934F935F936F9376
:101570007F938F939F93AF93BF93EF93FF9380914C
:10158000C301882331F08091C30181508093C3014E
:10159000BBC080914C02877019F415BC0E94370AB9
:1015A00080914C028770833079F480E992E00E9448
:1015B000590A0E94330A89E09DE30E946C0A8091D7
:1015C0004C02887F80934C0280914C02877081305E
:1015D00081F580914C02869586958695877090E07E
:1015E0008230910541F08330910511F00197F1F4BB
:1015F00080E992E002C080E395E00E94590A0E94CF
:10160000330A89E09DE30E946C0A80914C02869522
:1016100086958695895F8770880F880F880F9091CF
:101620004C02977C982B90934C0203C015BC0E94EF
:10163000370A80914C028770843069F580914C02A2
:10164000869586958695877090E08130910529F082
:101650000297F1F40E94370A06C080E992E00E94E6
:10166000590A0E94330A89E09DE30E946C0A809126
:101670004C02869586958695895F8770880F880FBE
:10168000880F90914C02977C982B90934C0203C04A
:1016900015BC0E94370A80914C0287708230A1F5F8
:1016A00080914C02869586958695877090E0823071
:1016B000910549F01CF4019749F023C0833091054E
:1016C00029F00497F1F40E94370A06C080E992E0FD
:1016D0000E94590A0E94330A84E89EE10E946C0A23
:1016E00080914C02869586958695895F8770880FD4
:1016F000880F880F90914C02977C982B90934C0206
:1017000003C015BC0E94370AFF91EF91BF91AF91C2
:101710009F918F917F916F915F914F913F912F9109
:101720000F900FBE0F901F901895CF93DF9380916D
:1017300016028E7F82608093160280914D02806235
:1017400080934D0280914C028F7B80934C0280915C
:101750004C02806880934C0280914D02806480939B
:101760004D0280914D02887F856080934D02C0E0DC
:10177000D0E0BE016050704046E050E0CE01895A92
:101780009D4F0E94E6142696C036D10591F70E941F
:101790004C0F8EED90E00E94F61480934E0285303F
:1017A00058F060E08EED90E00E94081584E294E02D
:1017B000DF91CF910C944909DF91CF910895CF9398
:1017C000C82F4091140250E04031510508F08AC101
:1017D000FA01E65DFF4F0C94B614843049F008F42A
:1017E00002C1883039F0803109F07CC185E334C012
:1017F00085E306C185E30EC0843049F008F4F3C0E8
:10180000883039F0803109F06DC184E325C084E36C
:10181000F7C084E38093520238C08830D1F038F4A6
:10182000823061F0843009F05DC183E3E9C080312A
:1018300091F0803209F056C187E354C081E480936F
:10184000500280914D02806280934D020E9473137A
:1018500049C183E3DFCF83E38093530216C088300E
:10186000D1F038F4823071F0843009F03BC182E36A
:10187000C7C0803291F08034A9F0803109F032C1C4
:1018800082E3EACF83E38093500280914D0280622D
:1018900080934D0227C182E3BDCF85E3809354023C
:1018A00080E323C00E941D101DC18830C1F050F498
:1018B000823089F0843089F0813009F013C10E94B0
:1018C000501210C1803269F0803491F0803109F0FB
:1018D00009C181E3C1CF82E3D6CF81E391C081E327
:1018E00099CF82E38093540285E380935502CDCF54
:1018F0000E942710CACF883001F148F48230A9F045
:101900008430B9F08130B1F50E94791235C080324F
:10191000C1F030F4803171F580E38093530216C03A
:101920008034D1F08038D9F025C08DE28093500208
:101930000DC080E38093510209C080E3809352027E
:1019400005C080E3809354028093550280914D023C
:10195000806280934D0210C00E943210F7CF8091B8
:101960004C0286FDBFC08091560283FFBBC00E941F
:101970006310B8C0C7FDB6C080914C0286FFB2C0EC
:1019800080914C028F7B80934C027FCF843041F05A
:1019900050F1883039F0803109F0A4C089E35CCF80
:1019A00089E32EC089E336CF843041F0E0F08830FF
:1019B00039F0803109F096C088E34ECF88E320C02B
:1019C00088E328CF843041F070F0883039F08031DE
:1019D00009F088C087E340CF87E312C087E31ACFBE
:1019E000843069F028F4C23009F07CC08DE24BCF1E
:1019F000883049F0803109F075C086E32DCF86E349
:101A00008093510242CF86E305CF813009F06AC04E
:101A10000E94461167C08038A9F48091560283FD68
:101A200061C08077803131F082E00E94781480E0DC
:101A30000E9478140E94AE108091560288608093B4
:101A4000560250C0882351F068E083E291E00E9482
:101A500057098C2F0E947809C7FD44C08091560217
:101A600083FF40C0877F809356020E943F113AC097
:101A7000803841F480914C0287FF34C080914C0241
:101A80008F7709C087FD2EC080914C0287FD2AC048
:101A900080914C02806880934C0224C0803439F0DD
:101AA000803841F0813049F40E945C101BC00E94D4
:101AB000431018C00E94521015C0882399F068E0A6
:101AC0008CE291E00AC08871883061F0803151F079
:101AD000CC2341F068E085E391E00E9457098C2F08
:101AE0000E94780988E10E948807C82F883019F081
:101AF000803159F011C08091560283FF18C082E0F6
:101B00000E94F210CF910C940D108091560283FF29
:101B10000EC0CF910C949211882349F065E08EE3BA
:101B200091E00E9457098C2FCF910C947809CF91A6
:101B300008950E949607823029F481E00E94A11442
:101B400081E053C0863029F481E00E94A11482E034
:101B50004CC0843029F482E00E94A11483E045C087
:101B60008C3029F483E00E94A11484E03EC08E30C2
:101B700029F484E00E94A11485E037C08A3029F45A
:101B800085E00E94A11486E030C0883029F486E008
:101B90000E94A11487E029C0883129F487E00E94BF
:101BA000A11488E022C08A3129F488E00E94A1149F
:101BB00089E01BC08E3129F489E00E94A1148AE0DB
:101BC00014C08C3129F48AE00E94A1148BE00DC06E
:101BD000843129F48BE00E94A1148CE006C0863188
:101BE00039F48CE00E94A1148DE080934F02CCC0A8
:101BF000823129F48DE00E94A1148EE0F6CF80316D
:101C0000E9F48EE00E94A1148FE080934F0280914E
:101C10004E028111B9C0809156028770813009F05F
:101C2000B3C080914D028770813009F0ADC08091C2
:101C30004D02887F80934D0284E0A4C08033F1F48C
:101C40008FE00E94A11480E180934F0280914E02A8
:101C500081119AC0809156028770813009F094C03A
:101C600080914D028770823009F08EC080E00E9422
:101C7000D41180914D02887F816064C08233F1F479
:101C800080E10E94A11481E180934F0280914E0275
:101C900081117AC0809156028770813009F074C03A
:101CA00080914D028770833009F06EC080E00E9401
:101CB000D41180914D02887F826044C08633F1F454
:101CC00081E10E94A11482E180934F0280914E0233
:101CD00081115AC0809156028770813009F054C03A
:101CE00080914D028770843009F04EC080E00E94E0
:101CF000D41180914D02887F836024C0843329F5FC
:101D000082E10E94A11483E180934F020E94341368
:101D100080914E02811113C08091560287708130EC
:101D200071F480914D028770853049F480E00E9403
:101D3000D41180914D02887F846080934D02809100
:101D40004D028F7E80934D021FC08C3311F583E1CD
:101D50000E94A11484E180934F0280914D02806122
:101D600080934D0280914E0281110EC080915602E7
:101D70008770813049F480914D02887F856080931F
:101D80004D0280E00E94D41180914D0280628093C8
:101D90004D0208951F93CF93DF9310921402D2E364
:101DA000C5E311E4809114028A3008F071C088B351
:101DB000807F88BB88B390911402892B88BB80E414
:101DC00000008150E9F723B320958091140290E040
:101DD0008A309105C8F5FC01E65CFF4F0C94B614FF
:101DE00085E33DC021FF34C01093500231C021FF74
:101DF00003C083E38093500225FF2CC087E38093C8
:101E00005402C093550226C021FDD093500225FFF5
:101E100023C0C093540280E3809355021DC025FF68
:101E20001DC0D0935402C093550218C080E325FF13
:101E300016C0809354028093550211C088E30FC0EE
:101E400087E30DC086E30BC08DE209C089E307C0BC
:101E500084E305C083E303C082E301C081E322FD84
:101E60008093510223FD8093520224FD80935302FC
:101E700062E084E491E00E94570980914D02806203
:101E800080934D02809114028F5F809314028ACF59
:101E9000DF91CF911F910895CF93DF938DE08093D1
:101EA000140280911402833008F48BC088B3807FC1
:101EB00088BB88B390911402892B88BB80E800000E
:101EC0008150E9F7D3B3CD2FC0958091140290E0F3
:101ED000FC013397EB30F10508F06FC0EC5BFF4F6E
:101EE0000C94B614C6FF69C080915602887F63C007
:101EF000C6FF63C080915602887F81605CC0C6FFC8
:101F00005CC080915602887F826055C00E9445085F
:101F100054C00E94BE078091140281508093140225
:101F200030915602C7FF0FC090E0FC01E65DFD4F07
:101F3000208120682083FC01E65CFD4FD08338605F
:101F4000309356023AC0832F877F80935602809148
:101F50004D028F7B80934D0230C00E94BE0780915E
:101F60001402815080931402C7FF11C090914C025B
:101F70009F7790934C0290E0FC01E65DFD4F20813D
:101F800020682083FC01E65CFD4FD08316C0809161
:101F90004C02806880934C0210C0C0FF06C0809144
:101FA00056028F78806180935602C6FF06C08091EA
:101FB00056028F788063809356028091140281507C
:101FC0006ECF88B3807F88BB809156028770823045
:101FD00021F4DF91CF910C943210DF91CF910895CD
:101FE0008FB580648FBD089580914F02811106C026
:101FF00080E28093C6018093C70109C06AE00E9415
:10200000AA14905D9093C701805D8093C60186EC11
:1020100091E0089580E592E00895ECEDF2E085E529
:10202000DF0111978C938083B69693E0E03CF9072B
:10203000B9F789E094E00C94490985E00E9478148E
:1020400080915602887F809356020C94CA0E86E0D7
:102050000E94781480915602887F81608093560296
:102060000C94450887E00E94781480915602887F7E
:1020700082608093560246E050E060EE73E080E5B7
:1020800092E00C94C914809156028077803319F441
:1020900082E00E947814809156028F78806280934B
:1020A0005602089583E00E947814809156028F783A
:1020B0008063809356020895809156028F788061E4
:1020C000809356020895CF93DF93CDB7DEB727975D
:1020D0000FB6F894DEBF0FBECDBF87E0E7E4F1E0B6
:1020E000DE01119601900D928A95E1F780914C02E4
:1020F00086FD2BC080914C02806480934C028FE45B
:1021000094E00E94490962E0CE0101960E945709BD
:1021100086E494E00E94490966E0CE0101960E949F
:1021200057090E94080A8AE10E94E90962E0CE018B
:1021300001960E94ED0966E0CE0101960E94ED092C
:1021400085EA0E94E9090E940B0A27960FB6F894C7
:10215000DEBF0FBECDBFDF91CF9108950E94CA0EA2
:10216000809156028077803159F00E94631089E097
:102170009DE30E94440A80914C0286FDFCCF0895A5
:1021800080914D02806280934D0208950F931F93BA
:10219000CF93DF93EC018B018FE494E00E94490917
:1021A00062E0CE010E94570986E494E00E9449094A
:1021B00066E0C8010E9457090E94080A8AE10E944D
:1021C000E90962E0CE010E94ED0966E0C8010E94C3
:1021D000ED0985EA0E94E909DF91CF911F910F91E6
:1021E0000C940B0A1F93CF93DF93CDB7DEB72A97DA
:1021F0000FB6F894DEBF0FBECDBF182F80E28987DF
:102200008A8786E0E5E6F0E0DE01119601900D9206
:102210008A95E1F7143051F00E94F40FFC0180819F
:1022200089870E94F40FFC0181818A87612F70E009
:10223000660F771F6B557C4F42E050E0CE0107964A
:102240000E94C9146F817885CE0101960E94D21434
:10225000BE016F5F7F4FCE0109960E94C6101430F9
:1022600021F080E090E00E94440A2A960FB6F8948C
:10227000DEBF0FBECDBFDF91CF911F91089581E0EA
:102280000E9478141EBC84E00C94F21044E050E0EC
:1022900067EE73E080E592E00E94BC14892B11F593
:1022A0009091560297709130E1F580914F02843100
:1022B000C1F580915402803319F410924E020EC081
:1022C000823319F490934E0209C0853311F482E0F1
:1022D00003C0873319F483E080934E0280914E024D
:1022E0000C94F21080914E0281111BC08091560215
:1022F00087708130B1F480914F0290E0019726E021
:10230000289FB001299F700D1124605A7F4F46E02D
:1023100050E080E592E00E94FE1484E294E00C9488
:1023200049090895809156028770813079F580912E
:102330004E0281112BC09091500280914F02913436
:10234000A9F4853018F124E130E0281B310986E03A
:10235000829FF001839FF00D1124E95AFD4FA0E503
:10236000B2E001900D928A95E1F710C090E00197DC
:1023700026E0289FB001299F700D1124605A7F4FDD
:1023800046E050E080E592E00E94E61480914F0222
:10239000843121F480914E020C94F21080914D0210
:1023A000806280934D020895823009F449C0D0F4D0
:1023B000882341F1813009F06FC080E395E00E94ED
:1023C000590A0E94F00F89E09DE30E946C0A8091F7
:1023D0004C02887F816080934C0280914C02877C04
:1023E000886157C08430B9F008F43FC0853009F0E7
:1023F00053C080E992E00E94590A0E94F00F85E2E2
:1024000094EF42C080E992E00E94590A0E94F00FC6
:1024100089E09DE339C080E992E00E94590A0E9458
:10242000F00F89E09DE30E946C0A80914C02887F46
:10243000846080934C0280914C02877C806129C02B
:1024400080E992E00E94590A0E94F00F84E89EE120
:102450000E946C0A80914C02887F826080934C02BB
:1024600080914C02877C806214C085E491E00E94D8
:10247000590A0E94F00F89E09DE30E946C0A809146
:102480004C02887F836005C00E946C0A80914C02D8
:10249000887F80934C0208958FB58F7B8FBD089500
:1024A00080914E02811124C046E050E069ED73E056
:1024B00080E592E00E94BC14892B51F48FEF00005C
:1024C0008150E9F70E94D41180914D02886003C0C9
:1024D00080914D02877F80934D02809156028077D4
:1024E000803131F46CE771E083E891E00C94C61020
:1024F000089580915602877009F0B5C080914E0210
:10250000813049F008F4A6C0823009F47DC08330E0
:1025100009F47CC0089580914F0290E0FC0131974E
:10252000E431F10508F09FC0E15BFF4F0C94B61455
:1025300080915102809362008091520280936300E7
:1025400081E08FC0E091C80186E2E89FF00111248C
:10255000E552FD4F80915102909152029183808308
:1025600080E00E94D4118091C8018F5F863018F4FA
:102570008093C80102C01092C80182E00E94D41169
:1025800080914C02877C806180934C020895A091D9
:10259000C80186E2A89FD0011124AB52BD4F08C0EC
:1025A000A091C80186E2A89FD0011124A153BD4F7C
:1025B00086E0E0E5F2E001900D928A95E1F750C0E7
:1025C000A091C80186E2A89FD0011124A753BD4F56
:1025D000EFCFA091C80186E2A89FD0011124AD538E
:1025E000BD4FE6CFA091C80186E2A89FD00111247B
:1025F000A354BD4FDDCFA091C80186E2A89FD001B2
:102600001124A954BD4FD4CF0C940D1080914F02CA
:10261000853048F124E130E0281B310946E0429F33
:10262000C001439F900D1124DC01A95ABD4FE0E584
:10263000F2E001900D924A95E1F746E050E060E546
:1026400072E0805090400E94FE1484E294E00E9468
:10265000490906C080914D0283FF02C083E001C09A
:1026600080E00C94D41108950F931F93CF93DF93C0
:1026700080914E02811132C080915602877071F5AF
:1026800080914D0284FF2AC00BED12E0CCEDD2E028
:1026900090915102F801808198130CC090915202E0
:1026A0008881981307C080E0DF91CF911F910F912F
:1026B0000C94D4116AE08EE491E00E94570961E025
:1026C000C8010E94570961E0CE010E9457090A5DC6
:1026D0001F4FA696F3E0C03CDF07D1F6DF91CF9104
:1026E0001F910F9108950F931F93CF93DF9300D005
:1026F00000D000D0CDB7DEB780914E02882321F004
:1027000083E3809350025FC080914D0283FD07C038
:1027100085E00E94D41166E089E591E00AC08091CD
:102720005402833348F082E00E94D41166E080E6D0
:1027300091E00E94570947C042E050E067E671E02F
:1027400080E592E00E94D914892B39F082E00E9442
:10275000D41165E08AE691E0ECCF1091520200912D
:10276000530246E050E062ED70E0CE0101960E9417
:10277000E61444E050E060E771E0CE0101960E946B
:10278000D914811120C080ED800F912F990F9056A0
:10279000292F220F220F290F820F9091540290337C
:1027A00069F4853068F480914D02877061F085E0AE
:1027B0000E94D41166E085E791E0BBCF803118F02C
:1027C00082E00E94D41126960FB6F894DEBF0FBEA9
:1027D000CDBFDF91CF911F910F9108950E94E50425
:1027E00010929B030895282F207330E044E0359524
:1027F00027954A95E1F7213011F0206301C021E4CB
:1028000020935002282F2F70206320935102292FEC
:102810002877269526952695206320935202990FB6
:102820009E7086FB882780F9982B906390935302C3
:10283000862F8076803269F030F4811116C080E3F3
:102840008093540210C0803431F0803671F487E3F5
:1028500007C082E305C085E38093540280E303C090
:102860008093540285E3809355026F7160934F0209
:1028700080914D02806280934D0284E00895FC01B6
:102880008BEC91E09093F8018093F7018081807642
:10289000803261F58181893091F028F4813069F0CE
:1028A0008330B1F023C08B30C9F08D30F9F46481EE
:1028B0007581828193810C94F31388E0089581E0FF
:1028C000268137812130310509F080E08195089516
:1028D000838181110BC010926400089584E690E01A
:1028E0009093F8018093F70181E0089580E00895C6
:1028F00090914C0297FD24C090919B03992301F184
:102900009091D3018917E1F097988093D30190912A
:10291000E80194FFFCCF90E0880F991FFC01E95675
:10292000FB4FE491E093D501FC01E856FB4F849105
:102930008093D70168E085ED91E00E94B003979AFB
:10294000089590914F02981302C088E001C089E079
:102950000C947814991B79E004C0991F961708F01D
:10296000961B881F7A95C9F780950895EE0FFF1F73
:102970000590F491E02D0994FB01DC0104C08D91D8
:102980000590801921F441505040C8F7881B990BDD
:102990000895FB01DC0102C005900D9241505040AA
:1029A000D8F70895FB01DC0105900D920020E1F7B6
:1029B0000895FB01DC0104C08D910190801921F480
:1029C00041505040C8F7881B990B0895DC01CB019A
:1029D000FC01E199FECF06C0FFBBEEBBE09A319649
:1029E0000DB20D9241505040B8F70895E199FECFD5
:1029F0009FBB8EBBE09A99278DB30895DC01CB0174
:102A000003C02D910E94091541505040D0F7089500
:102A1000262FE199FECF9FBB8EBB2DBB0FB6F8943E
:0E2A2000E29AE19A0FBE01960895F894FFCF56
:102A2E00FF5A5555012020202020201B5B4A1B5B9E
:102A3E0033336D00504F5254430D0A003A20000DAF
:102A4E00444F4D20000D0A4D574F440D0A00090901
:102A5E0040000D0A464D542D4E45540D0A000D0AE8
:102A6E0055484620436F6E74726F6C0A0066697229
:102A7E0073742072756E0D0A00546F6E6520726548
:102A8E006376640D0A0053574F442076616C696477
:102A9E000D0A00554846206F66660D0A0054434ED7
:102AAE0054300A0054434352300A000A4F43523105
:102ABE00410A0054434E54310A00544343523141AB
:102ACE000A005443435231420A000A54434E5432D0
:102ADE000A0054434352320A000A535043520A002A
:102AEE004920000A635F775F313109000A635F771F
:102AFE005F3133090009635F775F313509000A637F
:102B0E005F7709002E0D00383838383838000D0A36
:102B1E00436865636B656420005820746F6E6500B2
:102B2E0058203E2E32350041300058203E313500BF
:102B3E003330303000582053574F4400303030304F
:062B4E00323300522D009D
:00000001FF
