:100000000C9487020C94A4020C94BF020C94A402DA
:100010000C94D70A0C94A4020C94BC0A0C94A4026D
:100020000C94A4020C94A10A0C94370A0C94F809BD
:100030000C94A4020C94A4020C94A4020C94A402A8
:100040000C94A4020C94A4020C94A4020C94A40298
:100050000C94A402160C3D0C640CA80CF10C3D0D84
:10006000A40DCA0DDC0D220E490E4F0E7C0E920E11
:10007000B60EA70E341036103B10481053105A100D
:100080006A10621064106610B610BC10C310211103
:10009000211121112111CA10CD10F1101111DC1301
:1000A00077147714771477147714771477147714F8
:1000B0007714771477147714E6130B14141424149C
:1000C0002D1436143F140902220001010080280972
:1000D0000400000103010100092101010001223F88
:1000E000000705810308000A120110010000000842
:1000F000C016DB270001010203010C0331002E00B2
:1001000031002E00310014035500480046002D0038
:1001100052006100640069006F00100376006F00F8
:10012000740069002E006E006C0004030904660967
:1001300073686F77206C6F61646564204D574F441E
:100140000D0A00006D0972656164206368616E6E5E
:10015000656C0D0A4D096D6F6E69746F722063686E
:10016000616E6E656C0D0A00006209636865636B01
:100170002062617564206572726F720D0A00004220
:1001800053095265736574207465726D696E616C94
:100190000D0A000054414209546F67676C65205096
:1001A0006F72744320726561646F75740A00003E5B
:1001B00009696E63726561736520617564696F209A
:1001C000667265712E0D0A3C096465637265617320
:1001D0006520617564696F20667265712E0D0A0075
:1001E0000063094869646520637572736F720D0A54
:1001F000430953686F7720637572736F720D0A003D
:10020000006409446179206F66204D6F6E74680A3E
:100210000000530953504920726567697374657211
:100220000A00007009706C617920626565700D0AC2
:100230005009706C61792070756C73650D0A5709EF
:10024000706C617920776176650D0A00005409545D
:10025000696D6572205265676973746572730A000F
:10026000003009506F72744320726561646F757459
:1002700020666F7220616C6C204D756C7469706CB7
:100280006578206368616E6E656C730D0A312E2E81
:100290003909506F72744320726561646F75742000
:1002A000666F722073656C6563746564204D756C50
:1002B0007469706C6578206368616E6E656C0D0A98
:1002C0000000610973686F7720726561646F7574EF
:1002D00020666F72206164646974696F6E616C205E
:1002E0006B6579730A000048454C5020666F722098
:1002F0007465726D696E616C0D0A0A0000094465CF
:1003000062756720656E61626C65643A2000001B4F
:10031000630A414E2F4152432D3136342055484611
:100320002049496120416972626F726E6520526195
:1003300064696F2072656164792E2E2E0D0A1B5B35
:100340007300001B5B4A5761726E696E673A204208
:100350006175642072617465206F7574736964657A
:100360002072656C6961626C652072616E676521DF
:100370000A00001B5B4A001B5B306D00001B5B31F9
:100380006D00001B5B33326D00001B5B4800001BDF
:10039000631B5B73001B5B3F32356800001B5B3FD8
:1003A00032356C0000CB03C403BD03B603AF03209A
:1003B000202020202000464D54434847004552410C
:1003C000534520004D2D4C4F4144005645522F4F70
:1003D000500038383838383800333130343235004E
:1003E00032343330303000323230303030001B5B4A
:1003F00031313B3230661B5B324B546F6E6520727D
:100400006563656976656400001B5B31323B3230A1
:10041000661B5B324B65726173696E67204D2D57A9
:100420004F4400001B5B31353B3230661B5B324B67
:1004300077726974696E6720746F20656570726F7A
:100440006D2E2E2E00001B5B363B33306600001BEA
:100450005B353B333466000005010906A101050741
:1004600019E029E71500250175019508810295011C
:100470007508810395057501050819012905910283
:100480009501750391039506750815002565050707
:10049000190029658100C0000006280528072807E3
:1004A0001D071B0306060607440745060705070345
:1004B0000707070309060905090709030A060A05CC
:1004C0000A070A030B060B050B070B030D060D05A8
:1004D0000D070D030E060E050E070E030F060F0582
:1004E0000F070F033306330533073303370637058A
:1004F00037073703160328071605040704061B05EC
:100500001B061D051D031605160616000000112406
:100510001FBECFE5D4E0DEBFCDBF11E0A0E6B0E066
:10052000E6EBFCE202C005900D92A638B107D9F7C0
:1005300013E0A6E8B1E001C01D92AC39B107E1F7C4
:100540000E94BA080C9459160C940000A82FB92FD9
:1005500080E090E041E050EA609530E009C02D91E4
:1005600082279795879510F084279527305EC8F3EA
:100570006F5FA8F30895EADF8D939D930895CF935D
:10058000CFB7CF93DF93C395849BE9F7849B0BC0D0
:10059000849B09C0849B07C0849B05C0849B03C0C7
:1005A000849B01C08BC06F93C091F601DD27C350BF
:1005B000DE4F2F9365E5849B03C02F916F91E6CFAB
:1005C0000F931F934F9320E040E15F9300B30871B6
:1005D00004FB27F93F9350E03BE039C018714064B9
:1005E0002F77012F5F5F1EC0406810B318712F77FF
:1005F00052501FC0406400B32F770871D1F15F5F84
:1006000000C023C0406210B32F77187191F15F5F73
:1006100000C025C008711027515012F45D5F000022
:10062000115027952C3F10B3C8F6187101270150BF
:1006300027952C3FC8F64227499300B3087110272D
:100640004F73115027952C3FA8F64695469510B349
:10065000187179F00127015027952C3F98F66B5AB5
:1006600060F3315000B3B0F600C010E81ABF0027A5
:1006700019C03B503195C31BD04010E81ABF088108
:10068000033C09F10B34F9F02091F4011981110FA9
:100690001213EDCF4A81441F093651F10D3211F08A
:1006A000013E29F70093FB013F915F914F911F910C
:1006B0000F912F916F91CAB7C7FD65CFDF91CF9191
:1006C000CFBFCF9118952091FB01222369F31091A0
:1006D000F901112391F5343092F13093F90120930F
:1006E000F5011091F6013BE0311B3093F60127C074
:1006F0000091F90101300CF50AE54F7049F4309191
:10070000610034FD1DC000936100CDEDD1E01CC03F
:100710003091E80134FD14C00093E801C9EED1E046
:1007200013C0052710E000C0000002BB1AC0052757
:1007300010E0221F1DC010E021C04AE502C032EDCA
:10074000432FC4E1D0E032E011B31861949A02B3B0
:1007500011BB58E120E865E320FF052702BB279580
:1007600017951C3FF0F66695B8F7B1F720FF0527FF
:1007700002BB279517951C3FD0F62795179517FFB5
:10078000052700001C3F02BBB0F629913A9519F7E6
:10079000077E1091FA01110FC651D04002BB11F033
:1007A0001093F40110E81ABF006111B3177E402FB7
:1007B000477E54E05A95F1F702BB11BB42BB74CFA0
:1007C000CF93C62F2091E80124FF07C02091E901B3
:1007D00038E823272093E90103C02AE52093E801A4
:1007E000DC01EAEEF1E08C2F8E0F9D9191938E1338
:1007F000FCCF6C2F8AEE91E00E94BB02CC5FC093CD
:10080000E801CF910895CF93DF938091F901835050
:1008100087FDB3C09091F6012091F5012D3209F0CA
:10082000AAC0883009F0A7C0CCE0D0E0C91BD1092C
:10083000C350DE4F83EC8093DD018AE58093610035
:10084000109286018881807621F0CE010E94831566
:1008500089C09A811092E6018981811106C01092A7
:10086000E70126EE31E082E079C0853019F49093FB
:10087000FA0171C0863009F058C08B81813041F493
:1008800088EE90E09093F8018093F70182E149C0EF
:10089000823041F486EC90E09093F8018093F70168
:1008A00082E23FC0833041F5911108C08AE291E0B5
:1008B0009093F8018093F70184E033C0913041F4C4
:1008C0008AE191E09093F8018093F70180E129C0DB
:1008D000923041F486E091E09093F8018093F70123
:1008E00084E11FC09330E1F48AEF90E09093F80127
:1008F0008093F7018CE015C0813241F488ED90E0DF
:100900009093F8018093F70189E00BC0823241F4A3
:1009100088E594E09093F8018093F7018FE301C09C
:1009200080E090E4909386011DC0883069F08930A2
:1009300019F49093FC010FC08A3049F08B3059F4C0
:100940008BE48093E90107C02CEF31E002C026EE72
:1009500031E081E003C026EE31E080E03093F80121
:100960002093F7019F81911104C09E81981708F48C
:10097000892F809360001092F9018091610084FFBB
:1009800047C0809160008F3F09F442C0C82F893072
:1009900008F0C8E08C1B809360008091DD0198E82E
:1009A00089278093DD01CC2331F12091F70130912B
:1009B000F8018091860186FF0BC0AEEDB1E0F90130
:1009C0008C2F8A0F94919D9331968A13FBCF09C087
:1009D000D901EEEDF1E08C2F8E0F9D9191938E1346
:1009E000FCCF8FEF8C0F90E00196820F931F9093B6
:1009F000F8018093F7016C2F8EED91E00E94BB020D
:100A0000CC5FCC3019F08FEF80936000C093610011
:100A100084E190B3987131F48150D9F71092FA01C2
:100A20001092F401DF91CF91089585B78C6085BF56
:100A30008BB780688BBF8BE48093E9018AE5809354
:100A4000E8010895CF93DF93813609F4F5C1E0F50D
:100A50008C3309F449C100F5803309F46AC048F4C5
:100A6000893009F404C28B3209F021C28AE18FB9BE
:100A700064C28A3308F01BC298B3907F98BB98B3C6
:100A80008053892B88BB62E08CE790E00E9480094C
:100A900083B30E94B80976C08D3409F4F8C148F4D4
:100AA0008E3309F41BC1833409F001C285E993E058
:100AB00040C2833509F4AEC1843509F41EC18035C6
:100AC00009F0F5C182E004C18E3609F4ABC0D8F458
:100AD000843609F45BC038F4823609F4E4C1833605
:100AE00009F4CFC1E4C1863609F45CC08D3609F043
:100AF000DEC19091130293FB882780F921E08227C1
:100B000080FB93F9CDC1843709F4E6C040F48F36F9
:100B100009F4CCC0803709F0CAC180E0D9C087375A
:100B200009F4D5C08F3709F4AFC1853709F0BFC1CB
:100B30008CC00E94530A68E08BE690E00E94800916
:100B400067E084E790E00E948009DFEFC0E088B3AF
:100B5000807F88BB88B38C2B88BBDD2319F0000015
:100B6000D150FBCF8C2F0E94A1098EE30E946E0909
:100B700083B30E94B809CF5FC03149F787E793E09C
:100B80000E947209DF91CF910C94530A64E08FE7C1
:100B900090E00E948009809162000E946E0980911D
:100BA00063003CC068E085E890E00E94800966E050
:100BB00087EB92E00E9480090E94AF0966E08DEB0E
:100BC00092E00E9480090E94AF0966E083EC92E007
:100BD0000E9480090E94AF0966E089EC92E00E94C1
:100BE00080090E94AF0966E08FEC92E00E948009C4
:100BF0000E94AF0966E085ED92E00E9480090E94A4
:100C0000AF0962E08BED92E00E94800963E08EE81C
:100C100090E00E9480098091C801805DDF91CF91B2
:100C20000C946E096BE082E990E00E948009C7E5B0
:100C3000D2E066E0CE010E9480090E94AF092696AC
:100C400082E0C73BD807A9F778C16EE08EE990E053
:100C50000E94800983E793E00E94720980914D020F
:100C600086FF05C06BE08DEA90E00E9480098091CC
:100C70004D0283FF05C06CE089EB90E00E94800983
:100C800080914D02877029F46CE086EC90E00E9420
:100C900080098091560283FD05C06AE083ED90E0F3
:100CA0000E948009DF91CF910C94AF098091560288
:100CB0008F788061809356020E94F21180915602D3
:100CC000886080935602DF91CF910C940E1081E0E2
:100CD000DF91CF910C94181383E0FACF2FB7F894DB
:100CE0008AB59BB5409705C02FB7F8948AB59BB5D8
:100CF00040969BBD8ABD2FBF20C18FE893E00E9424
:100D000072098DE793E00E94720966E08DED90E034
:100D10000E94800987E793E00E94720982B70E94CF
:100D2000B8098DE793E00E94720966E084EE90E0D6
:100D30000E94800987E793E00E94720983B70E94AE
:100D4000B8098DE793E00E94720967E08BEE90E0AE
:100D50000E94800987E793E00E947209CAB5DBB55B
:100D60008D2F0E94B8098C2F0E94B8098DE793E05F
:100D70000E94720966E083EF90E00E94800987E795
:100D800093E00E947209CCB5DDB58D2F0E94B809A1
:100D90008C2F0E94B8098DE793E00E94720967E0EA
:100DA0008AEF90E00E94800987E793E00E94720931
:100DB0008FB50E94B8098DE793E00E94720967E041
:100DC00082E091E00E94800987E793E00E94720927
:100DD0008EB50E94B8098DE793E00E94720967E022
:100DE0008AE091E00E94800987E793E00E947209FF
:100DF00084B50E94B8098DE793E00E94720966E00D
:100E000082E191E00E94800987E793E00E947209E5
:100E100085B50CC00E94530A83E793E00E947209D3
:100E200065E089E191E00E9480098DB10E94B809D6
:100E30000E94530A88E0F2CE0E94530A83E793E0AF
:100E40000E9472098AB30E94B8098BB30E94B80944
:100E50008FEF0E94B8070E94A10963E080E291E051
:100E60000E94800989B3DF91CF910C94B8098091D9
:100E70001302982F909590FB80F98B7F877F80934A
:100E800013028DE993E055C08FE893E052C0909132
:100E9000130292FB882780F921E0822780FB92F9D8
:100EA000909313024AC0DF91CF910C94F509809181
:100EB00013028A7F877F809313020E94530A83E77D
:100EC00093E00E94720987EE92E00E94720981E627
:100ED00092E00E94720982EC92E00E9472098FEA0D
:100EE00091E00E94720983E292E00E9472098DE40F
:100EF00092E00E94720982E192E00E94720981EE02
:100F000091E00E94720984E991E00E9472098FE7E2
:100F100091E00E94720984E491E00E94720989E6DE
:100F200091E00E94720981E092E00E9472098EE2D3
:100F300091E0DF91CF910C947209DF91CF910895E8
:100F4000F89490911402E92FF0E0E65DFD4F2081C6
:100F500082232827208387FF04C0953021F420684E
:100F60002083789408959C30D1F39B30C1F3F9CF5E
:100F70009091150290959823F894809129029823D6
:100F80008927809329027894892F08958091BE0142
:100F900080958E739091BD01891719F08093BD01E2
:100FA000089580E00895F894E0911402F0E0E85E7E
:100FB000FD4F908189239827908378940895F89421
:100FC000E0911402F0E0E65CFD4F9081909589235A
:100FD0000C94A0070E94D3070C94A0074091140220
:100FE0004F3011F459B301C053B3842F90E0FC018A
:100FF000E65CFD4F60815627DC01A355BE4F2C9166
:10100000252320952C93DC01A356BE4F3C9135231C
:1010100032273C9325232323322F36273083FC01AC
:10102000E65DFD4F23235081252B2083FC01E357F0
:10103000FE4F532F517030FD02C022E320832081E8
:10104000215011F0208308C024E12083FC01E85ED8
:10105000FD4F8081852B80834F5F403118F4409392
:10106000140202C01092140288B3807F88BB88B338
:1010700090911402892B88BB0895809114028530C9
:1010800099F589B3876E30911502832790918C0171
:101090009823909590938C0120918B0128232927E8
:1010A00020938B0189238223282F23272093150245
:1010B000822330912902382B30932902922F91708C
:1010C00020FD03C082E380938A0180918A018150D0
:1010D00080938A01811108C084E180938A01809104
:1010E0001702892B809317020895809114028A3089
:1010F000E9F483B3816C3091BE018327909189011B
:10110000982390959093890120918801282329277D
:101110002093880189238223982F93279093BE01DF
:10112000892320912802282B20932802089580ECFF
:101130008ABB88E98BBB80EB87BB87B38F6087BB9B
:10114000C4988FEF85BB979882EA81BB88E182BB08
:1011500081B3886181BB85EA9EE00197F1F700C009
:10116000000082EA81BB80E182BB979A0895DF98F4
:10117000DE9808952FE088E190E00FB6F894A895E6
:1011800081BD0FBE21BD0E9497080E946C09882373
:1011900031F085B5806785BD80E183BDFFCF0E94BA
:1011A0000F0A0E94640A0E94B7080E94321585B790
:1011B0008F7485BF80911302887F877F809313028D
:1011C0008FE093E00E9472090E944A0A94989798CF
:1011D00078940E94BE0B10E001E0A8950E940304E1
:1011E00080E00E94BC1580914A0280FF09C0809176
:1011F0004A028E7F80934A028091C1010E9422059B
:101200008091130280FF25C0103120F00E94530A04
:1012100010E00CC01F5F83B30E94B809163031F490
:1012200089E00E946E0989B30E94B809812F0E944B
:10123000A10980E20E946E0988B3807F88BB88B3D1
:10124000812B88BB8BB388718BBB8BB38BBB97987F
:101250000AC08091160281FF06C00E9475080E9494
:10126000EE070E943D080E94DD0E8FEF0E94DF070F
:101270000E94080C80914D0285FF27C080914C028E
:1012800086FD23C0809156028770823011F40E943F
:10129000761180914D028F7D80934D028091560290
:1012A00083FF13C080914D0286FF07C080914D02DD
:1012B0008F7B80934D020E94F2110E944E11EC012F
:1012C0000E943811BE010E940A128091E80184FF39
:1012D00084CF00939B0381CF8FEF08955D9BFECF5A
:1012E0008CB90895CF93DF93EC01FE01849188239C
:1012F00021F00E946E092196F8CFDF91CF910895D9
:10130000EF92FF920F931F93CF93DF938C01EC0129
:10131000E62EF12CCE01801B910B8E159F0524F437
:1013200089910E946E09F6CFDF91CF911F910F91A5
:10133000FF90EF9008958F708A3008F0895D805D8E
:101340000895CF93C82F82958F700E949B090E94A9
:101350006E098C2F0E949B09CF910C946E098DE031
:101360008CB95D9BFECF8AE08CB95D9BFECF089562
:10137000CF93C82F87FF02C081E301C080E30E94A2
:101380006E09C6FF02C081E301C080E30E946E09BE
:10139000C5FF02C081E301C080E30E946E09C4FF63
:1013A00002C081E301C080E30E946E09C3FF02C056
:1013B00081E301C080E30E946E09C2FF02C081E3A5
:1013C00001C080E30E946E09C1FF02C081E301C039
:1013D00080E30E946E09C0FF02C081E301C080E388
:1013E0000E946E09CF910C94AF098FEF9FEF089583
:1013F0001F920F920FB60F9211248F938CB180938E
:10140000C10180914A02816080934A028091C101AA
:101410008CB98F910F900FBE0F901F90189583E598
:101420008DB908958FB9779BFECF0895EF92FF9203
:101430000F931F93CF93DF938C01EC01E62EF12CD9
:10144000CE01801B910B8E159F0524F489910E947B
:10145000120AF6CFDF91CF911F910F91FF90EF907D
:101460000895C498000008950000C49A08951F923A
:101470000F920FB60F9211248F938FB180934B026E
:101480008F910F900FBE0F901F90189583E893E0F7
:101490000C9472098BE10E946E098BE50E946E0923
:1014A00083E70C946E098BE10E946E098BE50E9424
:1014B0006E0985E70C946E098FB580648FBD089521
:1014C0008FB58F7B8FBD089582E083BF89B7816020
:1014D00089BF89B78B7F89BF089529B72B7E29BF24
:1014E0001FBC1EBC2FB7F8941DBC1CBC9BBD8ABD85
:1014F0002FBF8DE08EBD88B7846188BF89B78061BA
:1015000089BF08951EBC1DBC1CBC28B7246028BF21
:1015100021E02FBD22E12EBD29B72B7E29BF2FB799
:10152000F8949BBD8ABD2FBF089584BD9093C301DD
:1015300088B7806488BF87E085BD89B7806489BF2C
:1015400008951F920F920FB60F9211248F938091DE
:10155000C201815019F08093C20108C082E08093DB
:10156000C201809116028260809316028F910F90C3
:101570000FBE0F901F9018951F920F920FB60F92EB
:1015800011248F93EF93FF931EBCECE4F2E0808173
:101590008F7B8083EDE4F2E0808180628083FF9125
:1015A000EF918F910F900FBE0F901F9018951F9283
:1015B0000F920FB60F9211242F933F934F935F9387
:1015C0006F937F938F939F93AF93BF93EF93FF930B
:1015D0008091C301882331F08091C30181508093B1
:1015E000C301BBC080914C02877019F415BC0E94E6
:1015F000600A80914C028770833079F480E992E030
:101600000E94820A0E945C0A89E09DE30E94950A7A
:1016100080914C02887F80934C0280914C028770AD
:10162000813081F580914C028695869586958770EC
:1016300090E08230910541F08330910511F00197DF
:10164000F1F480E992E002C080E395E00E94820A12
:101650000E945C0A89E09DE30E94950A80914C02F9
:10166000869586958695895F8770880F880F880F85
:1016700090914C02977C982B90934C0203C015BC20
:101680000E94600A80914C028770843069F58091D5
:101690004C02869586958695877090E081309105FD
:1016A00029F00297F1F40E94600A06C080E992E0F6
:1016B0000E94820A0E945C0A89E09DE30E94950ACA
:1016C00080914C02869586958695895F8770880FF4
:1016D000880F880F90914C02977C982B90934C0226
:1016E00003C015BC0E94600A80914C028770823052
:1016F000A1F580914C02869586958695877090E03D
:101700008230910549F01CF4019749F023C08330E1
:10171000910529F00497F1F40E94600A06C080E95F
:1017200092E00E94820A0E945C0A84E89EE10E9484
:10173000950A80914C02869586958695895F87707B
:10174000880F880F880F90914C02977C982B90936C
:101750004C0203C015BC0E94600AFF91EF91BF913B
:10176000AF919F918F917F916F915F914F913F9139
:101770002F910F900FBE0F901F901895CF93DF936E
:10178000809116028E7F82608093160280914D02B6
:10179000806280934D0280914C028F7B80934C023B
:1017A00080914C02806880934C0280914D0280644D
:1017B00080934D0280914D02887F856080934D0219
:1017C000C0E0D0E0BE016050704046E050E0CE0185
:1017D000895A9D4F0E942A162696C036D10591F748
:1017E0000E9490108EED90E00E943A1680934E0277
:1017F000853058F060E08EED90E00E944C1684E257
:1018000094E0DF91CF910C947209DF91CF9108950C
:10181000CF93C82F4091140250E04031510508F099
:10182000A5C2FA01E65DFF4F0C94FA15843089F0E9
:1018300008F4C5C18830B9F0803109F097C285E35A
:101840008093530280914D02806280934D0286E224
:10185000ABC085E38093510280914D0280628093FA
:101860004D0282E1A1C085E38093520280914D0236
:10187000806280934D028CE197C0843089F008F437
:101880009EC18830B9F0803109F070C284E3809342
:10189000530280914D02806280934D0285E284C0A4
:1018A00084E38093510280914D02806280934D02C7
:1018B00081E17AC084E38093520280914D0280627C
:1018C00080934D028BE170C0883071F178F48230E2
:1018D000F9F0843009F04AC283E380935102809189
:1018E0004D02806280934D0280E15EC0803131F113
:1018F000803209F03BC287E38093540285E38093F2
:10190000550280914D02806280934D028EE24CC060
:1019100081E48093500280914D02806280934D0259
:101920000E94B7148CE040C083E380935202809100
:101930004D02806280934D028AE136C083E380933A
:10194000530280914D02806280934D0284E22CC04C
:10195000883069F178F48230F1F0843009F006C201
:1019600082E38093510280914D02806280934D0208
:101970008FE01AC0803229F1803481F1803109F082
:10198000F5C182E38093530280914D02806280937F
:101990004D0283E209C083E38093500280914D029F
:1019A000806280934D028BE00E94BC15DFC182E310
:1019B0008093520280914D02806280934D0289E1B2
:1019C000F3CF85E38093540280E3809355028091A6
:1019D0004D02806280934D028DE2E6CF0E9461113C
:1019E000C5C1883081F150F48230C9F0843009F1EA
:1019F000813009F0BBC10E949413B8C1803269F1F3
:101A00008034C1F1803109F0B1C181E38093530288
:101A100080914D02806280934D0282E2C5CF82E3C5
:101A20008093500280914D02806280934D028AE043
:101A3000BBCF81E38093510280914D0280628093FD
:101A40004D028EE0B1CF81E38093520280914D022E
:101A5000806280934D0288E1A7CF82E38093540295
:101A600085E38093550280914D02806280934D0200
:101A70008CE29ACF0E946B11A8C0883071F150F4AB
:101A80008230E9F08430F9F0813009F051C00E94D1
:101A9000BD1350C0803259F168F4803109F048C05C
:101AA00080E38093530280914D02806280934D02C7
:101AB00081E228C0803449F1803879F139C08DE263
:101AC0008093500224C080E38093510280914D02A4
:101AD000806280934D028DE015C080E380935202B6
:101AE00080914D02806280934D0287E10BC080E3BC
:101AF000809354028093550280914D0280628093BE
:101B00004D028BE20E94BC1515C00E947611809197
:101B10004D02806280934D020DC080914C0286FD83
:101B200025C18091560283FF21C10E94A7111EC1C9
:101B3000C7FD1CC180914C0286FF18C180914C02E8
:101B40008F7B80934C0241C0843081F0C0F188309B
:101B5000B9F0803109F00AC189E380935302809182
:101B60004D02806280934D028AE21ECF89E380930A
:101B7000510280914D02806280934D0286E114CF24
:101B800089E38093520280914D02806280934D02DE
:101B900080E20ACF8430F9F090F0883031F1803162
:101BA00009F0E4C088E38093530280914D02806283
:101BB00080934D0289E2F8CE843081F100F5C23085
:101BC00009F0D4C08DE28093500280914D02806272
:101BD00080934D02CBC088E38093510280914D02E7
:101BE000806280934D0285E1DFCE88E380935202CC
:101BF00080914D02806280934D028FE1D5CE883076
:101C0000B9F0803109F0B2C087E38093530280912C
:101C10004D02806280934D0288E2C6CE87E38093B6
:101C2000510280914D02806280934D0284E1BCCECE
:101C300087E38093520280914D02806280934D022F
:101C40008EE1B2CE843089F008F4B9CF8830B9F093
:101C5000803109F08BC086E38093530280914D025E
:101C6000806280934D0287E29FCE86E3809351028B
:101C700080914D02806280934D0283E195CE86E390
:101C80008093520280914D02806280934D028DE1DB
:101C90008BCE813009F06AC00E948A1267C08038FA
:101CA000A9F48091560283FD61C08077803131F0C4
:101CB00082E00E94BC1580E00E94BC150E94F211D7
:101CC0008091560288608093560250C0882351F05C
:101CD00068E083E291E00E9480098C2F0E94A109B4
:101CE000C7FD44C08091560283FF40C0877F809328
:101CF00056020E9483123AC0803841F480914C020F
:101D000087FF34C080914C028F7709C087FD2EC0B9
:101D100080914C0287FD2AC080914C02806880939C
:101D20004C0224C0803439F0803841F0813049F4CD
:101D30000E94A0111BC00E94871118C00E9496111A
:101D400015C0882399F068E08CE291E00AC08871A0
:101D5000883061F0803151F0CC2341F068E085E3B8
:101D600091E00E9480098C2F0E94A10988E10E94C5
:101D7000B807C82F883019F0803159F011C0809110
:101D8000560283FF18C082E00E943612CF910C9455
:101D900051118091560283FF0EC0CF910C94D61240
:101DA000882349F065E08EE391E00E9480098C2F42
:101DB000CF910C94A109CF9108950E94C60782305B
:101DC00029F481E00E94E51581E053C0863029F4B2
:101DD00081E00E94E51582E04CC0843029F482E065
:101DE0000E94E51583E045C08C3029F483E00E9411
:101DF000E51584E03EC08E3029F484E00E94E515AC
:101E000085E037C08A3029F485E00E94E51586E038
:101E100030C0883029F486E00E94E51587E029C0AB
:101E2000883129F487E00E94E51588E022C08A31D4
:101E300029F488E00E94E51589E01BC08E3129F461
:101E400089E00E94E5158AE014C08C3129F48AE00B
:101E50000E94E5158BE00DC0843129F48BE00E94CF
:101E6000E5158CE006C0863139F48CE00E94E5155A
:101E70008DE080934F02CCC0823129F48DE00E9426
:101E8000E5158EE0F6CF8031E9F48EE00E94E5158D
:101E90008FE080934F0280914E028111B9C08091F2
:101EA00056028770813009F0B3C080914D0287706F
:101EB000813009F0ADC080914D02887F80934D0242
:101EC00084E0A4C08033F1F48FE00E94E51580E146
:101ED00080934F0280914E0281119AC080915602E8
:101EE0008770813009F094C080914D0287708230F4
:101EF00009F08EC080E00E94181380914D02887F07
:101F0000816064C08233F1F480E10E94E51581E1D3
:101F100080934F0280914E0281117AC080915602C7
:101F20008770813009F074C080914D0287708330D2
:101F300009F06EC080E00E94181380914D02887FE6
:101F4000826044C08633F1F481E10E94E51582E1AC
:101F500080934F0280914E0281115AC080915602A7
:101F60008770813009F054C080914D0287708430B1
:101F700009F04EC080E00E94181380914D02887FC6
:101F8000836024C0843329F582E10E94E51583E152
:101F900080934F020E94781480914E02811113C0E9
:101FA000809156028770813071F480914D02877064
:101FB000853049F480E00E94181380914D02887F9B
:101FC000846080934D0280914D028F7E80934D02FC
:101FD0001FC08C3311F583E10E94E51584E18093E5
:101FE0004F0280914D02806180934D0280914E029C
:101FF00081110EC0809156028770813049F4809122
:102000004D02887F856080934D0280E00E94181306
:1020100080914D02806280934D0208951F93CF936B
:10202000DF9310921402D2E3C5E311E4809114020D
:102030008A3008F071C088B3807F88BB88B39091E4
:102040001402892B88BB80E400008150E9F723B398
:1020500020958091140290E08A309105C8F5FC012A
:10206000E65CFF4F0C94FA1585E33DC021FF34C0B8
:102070001093500231C021FF03C083E380935002CC
:1020800025FF2CC087E380935402C093550226C0DD
:1020900021FDD093500225FF23C0C093540280E35A
:1020A000809355021DC025FF1DC0D0935402C093DC
:1020B000550218C080E325FF16C080935402809318
:1020C000550211C088E30FC087E30DC086E30BC043
:1020D0008DE209C089E307C084E305C083E303C040
:1020E00082E301C081E322FD8093510223FD8093AE
:1020F000520224FD8093530262E084E491E00E9446
:10210000800980914D02806280934D02809114027B
:102110008F5F809314028ACFDF91CF911F91089532
:10212000CF93DF938DE0809314028091140283306B
:1021300008F48BC088B3807F88BB88B39091140269
:10214000892B88BB80E800008150E9F7D3B3CD2FFD
:10215000C0958091140290E0FC013397EB30F105BB
:1021600008F06FC0EC5BFF4F0C94FA15C6FF69C016
:1021700080915602887F63C0C6FF63C0809156027B
:10218000887F81605CC0C6FF5CC080915602887FFA
:10219000826055C00E94750854C00E94EE0780916D
:1021A000140281508093140230915602C7FF0FC071
:1021B00090E0FC01E65DFD4F208120682083FC015A
:1021C000E65CFD4FD0833860309356023AC0832FCF
:1021D000877F8093560280914D028F7B80934D02C2
:1021E00030C00E94EE078091140281508093140247
:1021F000C7FF11C090914C029F7790934C0290E0E2
:10220000FC01E65DFD4F208120682083FC01E65C37
:10221000FD4FD08316C080914C02806880934C02A1
:1022200010C0C0FF06C0809156028F7880618093F5
:102230005602C6FF06C0809156028F788063809355
:1022400056028091140281506ECF88B3807F88BB84
:10225000809156028770823021F4DF91CF910C94E7
:102260007611DF91CF9108958FB580648FBD089569
:1022700080914F02811106C080E28093C601809355
:10228000C70109C06AE00E94EE15905D9093C701F6
:10229000805D8093C60186EC91E0089580E592E030
:1022A0000895ECEDF2E085E5DF0111978C938083D2
:1022B000B69693E0E03CF907B9F789E094E00C9416
:1022C000720985E00E94BC1580915602887F809338
:1022D00056020C940E1086E00E94BC1580915602A6
:1022E000887F8160809356020C94750887E00E9475
:1022F000BC1580915602887F82608093560246E02A
:1023000050E060EE73E080E592E00C940D16809151
:1023100056028077803319F482E00E94BC158091C8
:1023200056028F78806280935602089583E00E945F
:10233000BC15809156028F78806380935602089571
:10234000809156028F788061809356020895CF93D2
:10235000DF93CDB7DEB727970FB6F894DEBF0FBE79
:10236000CDBF87E0E7E4F1E0DE01119601900D9228
:102370008A95E1F780914C0286FD2BC080914C023A
:10238000806480934C028FE494E00E94720962E0C2
:10239000CE0101960E94800986E494E00E947209B1
:1023A00066E0CE0101960E9480090E94310A8AE10E
:1023B0000E94120A62E0CE0101960E94160A66E0AF
:1023C000CE0101960E94160A85EA0E94120A0E9416
:1023D000340A27960FB6F894DEBF0FBECDBFDF914B
:1023E000CF9108950E940E1080915602807780311F
:1023F00059F00E94A71189E09DE30E946D0A809127
:102400004C0286FDFCCF089580914D02806280933E
:102410004D0208950F931F93CF93DF93EC018B012F
:102420008FE494E00E94720962E0CE010E9480096C
:1024300086E494E00E94720966E0C8010E94800967
:102440000E94310A8AE10E94120A62E0CE010E94D3
:10245000160A66E0C8010E94160A85EA0E94120A5E
:10246000DF91CF911F910F910C94340A1F93CF935A
:10247000DF93CDB7DEB72A970FB6F894DEBF0FBE55
:10248000CDBF182F80E289878A8786E0E5E6F0E0F5
:10249000DE01119601900D928A95E1F7143051F00A
:1024A0000E943811FC01808189870E943811FC014B
:1024B00081818A87612F70E0660F771F6B557C4F93
:1024C00042E050E0CE0107960E940D166F8178859C
:1024D000CE0101960E941616BE016F5F7F4FCE019E
:1024E00009960E940A12143021F080E090E00E94C8
:1024F0006D0A2A960FB6F894DEBF0FBECDBFDF91EE
:10250000CF911F91089581E00E94BC151EBC84E00C
:102510000C94361244E050E067EE73E080E592E000
:102520000E940016892B11F59091560297709130F8
:10253000E1F580914F028431C1F5809154028033DE
:1025400019F410924E020EC0823319F490934E0289
:1025500009C0853311F482E003C0873319F483E0A6
:1025600080934E0280914E020C94361280914E025E
:1025700081111BC08091560287708130B1F4809127
:102580004F0290E0019726E0289FB001299F700D2F
:102590001124605A7F4F46E050E080E592E00E94AF
:1025A000421684E294E00C947209089580915602D8
:1025B0008770813079F580914E0281112BC0909106
:1025C000500280914F029134A9F4853018F124E132
:1025D00030E0281B310986E0829FF001839FF00DD7
:1025E0001124E95AFD4FA0E5B2E001900D928A95C1
:1025F000E1F710C090E0019726E0289FB001299FE5
:10260000700D1124605A7F4F46E050E080E592E063
:102610000E942A1680914F02843121F480914E024B
:102620000C94361280914D02806280934D02089581
:10263000823009F449C0D0F4882341F1813009F097
:102640006FC080E395E00E94820A0E94341189E005
:102650009DE30E94950A80914C02887F816080935F
:102660004C0280914C02877C886157C08430B9F05D
:1026700008F43FC0853009F053C080E992E00E9421
:10268000820A0E94341185E294EF42C080E992E010
:102690000E94820A0E94341189E09DE339C080E9DA
:1026A00092E00E94820A0E94341189E09DE30E9418
:1026B000950A80914C02887F846080934C028091BF
:1026C0004C02877C806129C080E992E00E94820AE6
:1026D0000E94341184E89EE10E94950A80914C0288
:1026E000887F826080934C0280914C02877C80625C
:1026F00014C085E491E00E94820A0E94341189E0AE
:102700009DE30E94950A80914C02887F836005C0FA
:102710000E94950A80914C02887F80934C02089514
:102720008FB58F7B8FBD089580914E02811124C09B
:1027300046E050E069ED73E080E592E00E9400160B
:10274000892B51F48FEF00008150E9F70E94181394
:1027500080914D02886003C080914D02877F8093F5
:102760004D02809156028077803131F46CE771E040
:1027700083E891E00C940A120895809156028770C4
:1027800009F0B5C080914E02813049F008F4A6C02E
:10279000823009F47DC0833009F47CC008958091B3
:1027A0004F0290E0FC013197E431F10508F09FC041
:1027B000E15BFF4F0C94FA15809151028093620007
:1027C000809152028093630081E08FC0E091C80144
:1027D00086E2E89FF0011124E552FD4F80915102FD
:1027E000909152029183808380E00E94181380911F
:1027F000C8018F5F863018F48093C80102C0109220
:10280000C80182E00E94181380914C02877C80618D
:1028100080934C020895A091C80186E2A89FD00140
:102820001124AB52BD4F08C0A091C80186E2A89FF9
:10283000D0011124A153BD4F86E0E0E5F2E0019004
:102840000D928A95E1F750C0A091C80186E2A89F39
:10285000D0011124A753BD4FEFCFA091C80186E24C
:10286000A89FD0011124AD53BD4FE6CFA091C80160
:1028700086E2A89FD0011124A354BD4FDDCFA091C3
:10288000C80186E2A89FD0011124A954BD4FD4CF1E
:102890000C94511180914F02853048F124E130E0D1
:1028A000281B310946E0429FC001439F900D11242F
:1028B000DC01A95ABD4FE0E5F2E001900D924A9586
:1028C000E1F746E050E060E572E0805090400E9401
:1028D000421684E294E00E94720906C080914D0283
:1028E00083FF02C083E001C080E00C9418130895B8
:1028F0000F931F93CF93DF9380914E02811132C0CB
:1029000080915602877071F580914D0284FF2AC034
:102910000BED12E0CCEDD2E090915102F8018081F4
:1029200098130CC0909152028881981307C080E0E0
:10293000DF91CF911F910F910C9418136AE08EE4F0
:1029400091E00E94800961E0C8010E94800961E075
:10295000CE010E9480090A5D1F4FA696F3E0C03C9D
:10296000DF07D1F6DF91CF911F910F9108950F935B
:102970001F93CF93DF9300D000D000D0CDB7DEB748
:1029800080914E02882321F083E3809350025FC040
:1029900080914D0283FD07C085E00E94181366E018
:1029A00089E591E00AC080915402833348F082E0C7
:1029B0000E94181366E080E691E00E94800947C0FB
:1029C00042E050E067E671E080E592E00E941D166B
:1029D000892B39F082E00E94181365E08AE691E0C5
:1029E000ECCF109152020091530246E050E062EDAC
:1029F00070E0CE0101960E942A1644E050E060E7A4
:102A000071E0CE0101960E941D16811120C080ED5B
:102A1000800F912F990F9056292F220F220F290FE7
:102A2000820F90915402903369F4853068F480915C
:102A30004D02877061F085E00E94181366E085E71B
:102A400091E0BBCF803118F082E00E9418132696E7
:102A50000FB6F894DEBF0FBECDBFDF91CF911F91AF
:102A60000F9108950E94150510929B030895282F39
:102A7000207330E044E0359527954A95E1F7213001
:102A800011F0206301C021E420935002282F2F7001
:102A9000206320935102292F287726952695269585
:102AA000206320935202990F9E7086FB882780F93D
:102AB000982B906390935302862F8076803269F032
:102AC00030F4811116C080E38093540210C080342A
:102AD00031F0803671F487E307C082E305C085E3F7
:102AE0008093540280E303C08093540285E3809373
:102AF00055026F7160934F0280914D028062809306
:102B00004D0284E00895FC018BEC91E09093F80174
:102B10008093F70180818076803261F581818930F0
:102B200091F028F4813069F08330B1F023C08B300C
:102B3000C9F08D30F9F464817581828193810C94A0
:102B4000371588E0089581E02681378121303105ED
:102B500009F080E081950895838181110BC0109266
:102B60006400089584E690E09093F8018093F70163
:102B700081E0089580E0089590914C0297FD24C073
:102B800090919B03992301F19091D3018917E1F072
:102B900097988093D3019091E80194FFFCCF90E047
:102BA000880F991FFC01E956FB4FE491E093D50192
:102BB000FC01E856FB4F84918093D70168E085EDD6
:102BC00091E00E94E003979A089590914F02981324
:102BD00002C088E001C089E00C94BC15991B79E023
:102BE00004C0991F961708F0961B881F7A95C9F79D
:102BF00080950895EE0FFF1F0590F491E02D099444
:102C0000FB01DC0104C08D910590801921F4415035
:102C10005040C8F7881B990B0895FB01DC0102C0E6
:102C200005900D9241505040D8F70895FB01DC010A
:102C300005900D920020E1F70895FB01DC0104C02E
:102C40008D910190801921F441505040C8F7881BA4
:102C5000990B0895DC01CB01FC01E199FECF06C080
:102C6000FFBBEEBBE09A31960DB20D924150504041
:102C7000B8F70895E199FECF9FBB8EBBE09A9927E4
:102C80008DB30895DC01CB0103C02D910E944D1638
:102C900041505040D0F70895262FE199FECF9FBBB9
:102CA0008EBB2DBB0FB6F894E29AE19A0FBE019647
:062CB0000895F894FFCF27
:102CB600FF5A5555012020202020201B5B4A1B5B14
:102CC60033336D00504F5254430D0A003A20000D25
:102CD600444F4D20000D0A4D574F440D0A00090977
:102CE60040000D0A464D542D4E45540D0A000D0A5E
:102CF60055484620436F6E74726F6C0A006669729F
:102D060073742072756E0D0A00546F6E65207265BD
:102D16006376640D0A0053574F442076616C6964EC
:102D26000D0A00554846206F66660D0A0054434E4C
:102D360054300A0054434352300A000A4F4352317A
:102D4600410A0054434E54310A0054434352314120
:102D56000A005443435231420A000A54434E543245
:102D66000A0054434352320A000A535043520A009F
:102D76004920000A635F775F313109000A635F7794
:102D86005F3133090009635F775F313509000A63F4
:102D96005F7709002E0D00383838383838000D0AAC
:102DA600436865636B656420005820746F6E650028
:102DB60058203E2E32350041300058203E31350035
:102DC6003330303000582053574F440030303030C5
:062DD600323400522D0012
:00000001FF
